{"abi":[{"type":"function","name":"acceptTransfer","inputs":[{"name":"transferId","type":"uint256","internalType":"uint256"}],"outputs":[],"stateMutability":"nonpayable"},{"type":"function","name":"cancelTransfer","inputs":[{"name":"transferId","type":"uint256","internalType":"uint256"}],"outputs":[],"stateMutability":"nonpayable"},{"type":"function","name":"createToken","inputs":[{"name":"name","type":"string","internalType":"string"},{"name":"supply","type":"uint256","internalType":"uint256"},{"name":"features","type":"string","internalType":"string"},{"name":"parentId","type":"uint256","internalType":"uint256"}],"outputs":[{"name":"","type":"uint256","internalType":"uint256"}],"stateMutability":"nonpayable"},{"type":"function","name":"createTransferRequest","inputs":[{"name":"to","type":"address","internalType":"address"},{"name":"tokenId","type":"uint256","internalType":"uint256"},{"name":"amount","type":"uint256","internalType":"uint256"}],"outputs":[{"name":"","type":"uint256","internalType":"uint256"}],"stateMutability":"nonpayable"},{"type":"function","name":"getToken","inputs":[{"name":"tokenId","type":"uint256","internalType":"uint256"}],"outputs":[{"name":"","type":"tuple","internalType":"struct RawMaterial.Token","components":[{"name":"id","type":"uint256","internalType":"uint256"},{"name":"creator","type":"address","internalType":"address"},{"name":"name","type":"string","internalType":"string"},{"name":"supply","type":"uint256","internalType":"uint256"},{"name":"balance","type":"uint256","internalType":"uint256"},{"name":"features","type":"string","internalType":"string"},{"name":"parentId","type":"uint256","internalType":"uint256"},{"name":"createdAt","type":"uint256","internalType":"uint256"}]}],"stateMutability":"view"},{"type":"function","name":"getTokensByOwner","inputs":[{"name":"owner","type":"address","internalType":"address"}],"outputs":[{"name":"","type":"tuple[]","internalType":"struct RawMaterial.Token[]","components":[{"name":"id","type":"uint256","internalType":"uint256"},{"name":"creator","type":"address","internalType":"address"},{"name":"name","type":"string","internalType":"string"},{"name":"supply","type":"uint256","internalType":"uint256"},{"name":"balance","type":"uint256","internalType":"uint256"},{"name":"features","type":"string","internalType":"string"},{"name":"parentId","type":"uint256","internalType":"uint256"},{"name":"createdAt","type":"uint256","internalType":"uint256"}]}],"stateMutability":"view"},{"type":"function","name":"getTransfersByRecipient","inputs":[{"name":"recipient","type":"address","internalType":"address"}],"outputs":[{"name":"","type":"tuple[]","internalType":"struct RawMaterial.TransferRequest[]","components":[{"name":"id","type":"uint256","internalType":"uint256"},{"name":"tokenId","type":"uint256","internalType":"uint256"},{"name":"from","type":"address","internalType":"address"},{"name":"to","type":"address","internalType":"address"},{"name":"amount","type":"uint256","internalType":"uint256"},{"name":"status","type":"uint8","internalType":"enum RawMaterial.TransferStatus"},{"name":"createdAt","type":"uint256","internalType":"uint256"}]}],"stateMutability":"view"},{"type":"function","name":"getTransfersBySender","inputs":[{"name":"sender","type":"address","internalType":"address"}],"outputs":[{"name":"","type":"tuple[]","internalType":"struct RawMaterial.TransferRequest[]","components":[{"name":"id","type":"uint256","internalType":"uint256"},{"name":"tokenId","type":"uint256","internalType":"uint256"},{"name":"from","type":"address","internalType":"address"},{"name":"to","type":"address","internalType":"address"},{"name":"amount","type":"uint256","internalType":"uint256"},{"name":"status","type":"uint8","internalType":"enum RawMaterial.TransferStatus"},{"name":"createdAt","type":"uint256","internalType":"uint256"}]}],"stateMutability":"view"},{"type":"function","name":"nextTokenId","inputs":[],"outputs":[{"name":"","type":"uint256","internalType":"uint256"}],"stateMutability":"view"},{"type":"function","name":"nextTransferId","inputs":[],"outputs":[{"name":"","type":"uint256","internalType":"uint256"}],"stateMutability":"view"},{"type":"function","name":"rejectTransfer","inputs":[{"name":"transferId","type":"uint256","internalType":"uint256"}],"outputs":[],"stateMutability":"nonpayable"},{"type":"function","name":"tokens","inputs":[{"name":"","type":"uint256","internalType":"uint256"}],"outputs":[{"name":"id","type":"uint256","internalType":"uint256"},{"name":"creator","type":"address","internalType":"address"},{"name":"name","type":"string","internalType":"string"},{"name":"supply","type":"uint256","internalType":"uint256"},{"name":"balance","type":"uint256","internalType":"uint256"},{"name":"features","type":"string","internalType":"string"},{"name":"parentId","type":"uint256","internalType":"uint256"},{"name":"createdAt","type":"uint256","internalType":"uint256"}],"stateMutability":"view"},{"type":"function","name":"transferRequests","inputs":[{"name":"","type":"uint256","internalType":"uint256"}],"outputs":[{"name":"id","type":"uint256","internalType":"uint256"},{"name":"tokenId","type":"uint256","internalType":"uint256"},{"name":"from","type":"address","internalType":"address"},{"name":"to","type":"address","internalType":"address"},{"name":"amount","type":"uint256","internalType":"uint256"},{"name":"status","type":"uint8","internalType":"enum RawMaterial.TransferStatus"},{"name":"createdAt","type":"uint256","internalType":"uint256"}],"stateMutability":"view"},{"type":"event","name":"TokenCreated","inputs":[{"name":"tokenId","type":"uint256","indexed":true,"internalType":"uint256"},{"name":"creator","type":"address","indexed":true,"internalType":"address"},{"name":"name","type":"string","indexed":false,"internalType":"string"},{"name":"supply","type":"uint256","indexed":false,"internalType":"uint256"}],"anonymous":false},{"type":"event","name":"TransferAccepted","inputs":[{"name":"transferId","type":"uint256","indexed":true,"internalType":"uint256"}],"anonymous":false},{"type":"event","name":"TransferCancelled","inputs":[{"name":"transferId","type":"uint256","indexed":true,"internalType":"uint256"}],"anonymous":false},{"type":"event","name":"TransferRejected","inputs":[{"name":"transferId","type":"uint256","indexed":true,"internalType":"uint256"}],"anonymous":false},{"type":"event","name":"TransferRequested","inputs":[{"name":"transferId","type":"uint256","indexed":true,"internalType":"uint256"},{"name":"tokenId","type":"uint256","indexed":true,"internalType":"uint256"},{"name":"from","type":"address","indexed":true,"internalType":"address"},{"name":"to","type":"address","indexed":false,"internalType":"address"},{"name":"amount","type":"uint256","indexed":false,"internalType":"uint256"}],"anonymous":false},{"type":"error","name":"InsufficientBalance","inputs":[]},{"type":"error","name":"InvalidAmount","inputs":[]},{"type":"error","name":"InvalidRecipient","inputs":[]},{"type":"error","name":"NotTokenOwner","inputs":[]},{"type":"error","name":"NotTransferRecipient","inputs":[]},{"type":"error","name":"NotTransferSender","inputs":[]},{"type":"error","name":"TokenNotFound","inputs":[]},{"type":"error","name":"TransferNotFound","inputs":[]},{"type":"error","name":"TransferNotPending","inputs":[]}],"bytecode":{"object":"0x608060405260015f5560018055348015610017575f80fd5b5061183f806100255f395ff3fe608060405234801561000f575f80fd5b50600436106100cb575f3560e01c806359caecb511610088578063b85b381b11610063578063b85b381b14610212578063d67b2d081461021b578063e4b50cb81461022e578063f2270d721461024e575f80fd5b806359caecb5146101d657806375794a3c146101e957806397e8a61b146101ff575f80fd5b806303486c40146100cf57806312effc3214610147578063274fae7c1461015c57806340398d671461016f5780634e94cef91461018f5780634f64b2be146101af575b5f80fd5b61012b6100dd3660046111f8565b600360208190525f91825260409091208054600182015460028301549383015460048401546005850154600690950154939592946001600160a01b03938416949390921692909160ff169087565b60405161013e9796959493929190611243565b60405180910390f35b61015a6101553660046111f8565b610261565b005b61015a61016a3660046111f8565b610363565b61018261017d3660046112a9565b610434565b60405161013e919061138c565b6101a261019d3660046112a9565b61067d565b60405161013e91906113ee565b6101c26101bd3660046111f8565b610801565b60405161013e989796959493929190611487565b61015a6101e43660046111f8565b610958565b6101f15f5481565b60405190815260200161013e565b6101f161020d3660046114e9565b610a60565b6101f160015481565b6101f16102293660046115b6565b610cd6565b61024161023c3660046111f8565b610e72565b60405161013e9190611626565b6101a261025c3660046112a9565b61102c565b5f818152600360205260408120805490910361029057604051632b44303360e11b815260040160405180910390fd5b60038101546001600160a01b031633146102bd57604051632fe6cf8360e21b815260040160405180910390fd5b5f600582015460ff1660038111156102d7576102d761120f565b146102f5576040516308cd5ef960e31b815260040160405180910390fd5b60058101805460ff1916600317905560048082015460018301545f90815260026020526040812090920180549192909161033090849061164c565b909155505060405182907f1f4f8a94e17d25044030f376d297769c8f9a1a2a0616e36b498a1e7370b5863f905f90a25050565b5f818152600360205260408120805490910361039257604051632b44303360e11b815260040160405180910390fd5b60038101546001600160a01b031633146103bf57604051632fe6cf8360e21b815260040160405180910390fd5b5f600582015460ff1660038111156103d9576103d961120f565b146103f7576040516308cd5ef960e31b815260040160405180910390fd5b60058101805460ff1916600117905560405182907f91dd4234b45d77221e6eca52c141569a6d0f3b3ffe9b8a18fe8b9aafbc64b44b905f90a25050565b6001600160a01b0381165f90815260046020526040812080546060929067ffffffffffffffff81111561046957610469611519565b6040519080825280602002602001820160405280156104a257816020015b61048f6111b0565b8152602001906001900390816104875790505b5090505f5b82548110156106755760025f8483815481106104c5576104c5611665565b5f918252602080832090910154835282810193909352604091820190208151610100810183528154815260018201546001600160a01b031693810193909352600281018054919284019161051890611679565b80601f016020809104026020016040519081016040528092919081815260200182805461054490611679565b801561058f5780601f106105665761010080835404028352916020019161058f565b820191905f5260205f20905b81548152906001019060200180831161057257829003601f168201915b5050505050815260200160038201548152602001600482015481526020016005820180546105bc90611679565b80601f01602080910402602001604051908101604052809291908181526020018280546105e890611679565b80156106335780601f1061060a57610100808354040283529160200191610633565b820191905f5260205f20905b81548152906001019060200180831161061657829003601f168201915b505050505081526020016006820154815260200160078201548152505082828151811061066257610662611665565b60209081029190910101526001016104a7565b509392505050565b6001600160a01b0381165f90815260056020526040812080546060929067ffffffffffffffff8111156106b2576106b2611519565b60405190808252806020026020018201604052801561071757816020015b6040805160e0810182525f8082526020808301829052928201819052606082018190526080820181905260a0820181905260c082015282525f199092019101816106d05790505b5090505f5b82548110156106755760035f84838154811061073a5761073a611665565b5f91825260208083209091015483528281019390935260409182019020815160e0810183528154815260018201549381019390935260028101546001600160a01b03908116928401929092526003808201549092166060840152600481015460808401526005810154909160a084019160ff16908111156107bd576107bd61120f565b60038111156107ce576107ce61120f565b81526020016006820154815250508282815181106107ee576107ee611665565b602090810291909101015260010161071c565b600260208190525f918252604090912080546001820154928201805491936001600160a01b0316929161083390611679565b80601f016020809104026020016040519081016040528092919081815260200182805461085f90611679565b80156108aa5780601f10610881576101008083540402835291602001916108aa565b820191905f5260205f20905b81548152906001019060200180831161088d57829003601f168201915b5050505050908060030154908060040154908060050180546108cb90611679565b80601f01602080910402602001604051908101604052809291908181526020018280546108f790611679565b80156109425780601f1061091957610100808354040283529160200191610942565b820191905f5260205f20905b81548152906001019060200180831161092557829003601f168201915b5050505050908060060154908060070154905088565b5f818152600360205260408120805490910361098757604051632b44303360e11b815260040160405180910390fd5b60028101546001600160a01b031633146109b457604051631cb2f8fb60e01b815260040160405180910390fd5b5f600582015460ff1660038111156109ce576109ce61120f565b146109ec576040516308cd5ef960e31b815260040160405180910390fd5b6005810180546002919060ff19166001830217905550806004015460025f836001015481526020019081526020015f206004015f828254610a2d919061164c565b909155505060405182907f80325e888c1c82b732ed61a3aaa950ae32a233290f74a648d1a3339666450345905f90a25050565b5f6001600160a01b038416610a8857604051634e46966960e11b815260040160405180910390fd5b815f03610aa85760405163162908e360e11b815260040160405180910390fd5b5f8381526002602052604081208054909103610ad757604051630cbdb7b360e41b815260040160405180910390fd5b60018101546001600160a01b03163314610b04576040516359dc379f60e01b815260040160405180910390fd5b8281600401541015610b2957604051631e9acf1760e31b815260040160405180910390fd5b82816004015f828254610b3c91906116b1565b9091555050600180545f9182610b51836116c4565b9190505590506040518060e00160405280828152602001868152602001336001600160a01b03168152602001876001600160a01b031681526020018581526020015f6003811115610ba457610ba461120f565b8152426020918201525f83815260038083526040918290208451815592840151600180850191909155918401516002840180546001600160a01b039283166001600160a01b031991821617909155606086015185840180549190931691161790556080840151600484015560a08401516005840180549193909260ff19909216918490811115610c3657610c3661120f565b021790555060c09190910151600691820155335f818152600560209081526040808320805460018082018355918552838520018790556001600160a01b038c1680855295835281842080549182018155845292829020909201859055815193845283018790529091879184917f5fb2e4d56c3e24ecd6780a45d26149b6188355d17bd78ce1c14e0daf26c354fd910160405180910390a495945050505050565b5f835f03610cf75760405163162908e360e11b815260040160405180910390fd5b5f82118015610d1157505f82815260026020526040902054155b15610d2f57604051630cbdb7b360e41b815260040160405180910390fd5b5f80548180610d3d836116c4565b9091555060408051610100810182528281523360208083019182528284018b8152606084018b9052608084018b905260a084018a905260c084018990524260e08501525f868152600292839052949094208351815591516001830180546001600160a01b0319166001600160a01b03909216919091179055925193945090929091820190610dcb9082611728565b50606082015160038201556080820151600482015560a08201516005820190610df49082611728565b5060c0820151600682015560e090910151600790910155335f818152600460209081526040808320805460018101825590845291909220018390555182907f463ec2a62c46678a81e23cde640446ca4b512f102bb3309cf5a3e2a4ae83146490610e61908a908a906117e8565b60405180910390a395945050505050565b610e7a6111b0565b5f828152600260205260408120549003610ea757604051630cbdb7b360e41b815260040160405180910390fd5b5f828152600260208181526040928390208351610100810185528154815260018201546001600160a01b03169281019290925291820180549193840191610eed90611679565b80601f0160208091040260200160405190810160405280929190818152602001828054610f1990611679565b8015610f645780601f10610f3b57610100808354040283529160200191610f64565b820191905f5260205f20905b815481529060010190602001808311610f4757829003601f168201915b505050505081526020016003820154815260200160048201548152602001600582018054610f9190611679565b80601f0160208091040260200160405190810160405280929190818152602001828054610fbd90611679565b80156110085780601f10610fdf57610100808354040283529160200191611008565b820191905f5260205f20905b815481529060010190602001808311610feb57829003601f168201915b50505050508152602001600682015481526020016007820154815250509050919050565b6001600160a01b0381165f90815260066020526040812080546060929067ffffffffffffffff81111561106157611061611519565b6040519080825280602002602001820160405280156110c657816020015b6040805160e0810182525f8082526020808301829052928201819052606082018190526080820181905260a0820181905260c082015282525f1990920191018161107f5790505b5090505f5b82548110156106755760035f8483815481106110e9576110e9611665565b5f91825260208083209091015483528281019390935260409182019020815160e0810183528154815260018201549381019390935260028101546001600160a01b03908116928401929092526003808201549092166060840152600481015460808401526005810154909160a084019160ff169081111561116c5761116c61120f565b600381111561117d5761117d61120f565b815260200160068201548152505082828151811061119d5761119d611665565b60209081029190910101526001016110cb565b6040518061010001604052805f81526020015f6001600160a01b03168152602001606081526020015f81526020015f8152602001606081526020015f81526020015f81525090565b5f60208284031215611208575f80fd5b5035919050565b634e487b7160e01b5f52602160045260245ffd5b6004811061123f57634e487b7160e01b5f52602160045260245ffd5b9052565b878152602081018790526001600160a01b038681166040830152851660608201526080810184905260e0810161127c60a0830185611223565b8260c083015298975050505050505050565b80356001600160a01b03811681146112a4575f80fd5b919050565b5f602082840312156112b9575f80fd5b6112c28261128e565b9392505050565b5f81518084525f5b818110156112ed576020818501810151868301820152016112d1565b505f602082860101526020601f19601f83011685010191505092915050565b5f6101008251845260018060a01b036020840151166020850152604083015181604086015261133d828601826112c9565b915050606083015160608501526080830151608085015260a083015184820360a086015261136b82826112c9565b91505060c083015160c085015260e083015160e08501528091505092915050565b5f60208083016020845280855180835260408601915060408160051b8701019250602087015f5b828110156113e157603f198886030184526113cf85835161130c565b945092850192908501906001016113b3565b5092979650505050505050565b602080825282518282018190525f919060409081850190868401855b8281101561147a578151805185528681015187860152858101516001600160a01b0390811687870152606080830151909116908601526080808201519086015260a08082015161145c82880182611223565b505060c0908101519085015260e0909301929085019060010161140a565b5091979650505050505050565b8881526001600160a01b0388166020820152610100604082018190525f906114b18382018a6112c9565b905087606084015286608084015282810360a08401526114d181876112c9565b60c0840195909552505060e001529695505050505050565b5f805f606084860312156114fb575f80fd5b6115048461128e565b95602085013595506040909401359392505050565b634e487b7160e01b5f52604160045260245ffd5b5f82601f83011261153c575f80fd5b813567ffffffffffffffff8082111561155757611557611519565b604051601f8301601f19908116603f0116810190828211818310171561157f5761157f611519565b81604052838152866020858801011115611597575f80fd5b836020870160208301375f602085830101528094505050505092915050565b5f805f80608085870312156115c9575f80fd5b843567ffffffffffffffff808211156115e0575f80fd5b6115ec8883890161152d565b9550602087013594506040870135915080821115611608575f80fd5b506116158782880161152d565b949793965093946060013593505050565b602081525f6112c2602083018461130c565b634e487b7160e01b5f52601160045260245ffd5b8082018082111561165f5761165f611638565b92915050565b634e487b7160e01b5f52603260045260245ffd5b600181811c9082168061168d57607f821691505b6020821081036116ab57634e487b7160e01b5f52602260045260245ffd5b50919050565b8181038181111561165f5761165f611638565b5f600182016116d5576116d5611638565b5060010190565b601f82111561172357805f5260205f20601f840160051c810160208510156117015750805b601f840160051c820191505b81811015611720575f815560010161170d565b50505b505050565b815167ffffffffffffffff81111561174257611742611519565b611756816117508454611679565b846116dc565b602080601f831160018114611789575f84156117725750858301515b5f19600386901b1c1916600185901b1785556117e0565b5f85815260208120601f198616915b828110156117b757888601518255948401946001909101908401611798565b50858210156117d457878501515f19600388901b60f8161c191681555b505060018460011b0185555b505050505050565b604081525f6117fa60408301856112c9565b9050826020830152939250505056fea2646970667358221220f2552dcfbd01fbc97554e73885b7d63544564ffacf2fc81a6c02486e845761a264736f6c63430008180033","linkReferences":{}},"methodIdentifiers":{"acceptTransfer(uint256)":"274fae7c","cancelTransfer(uint256)":"59caecb5","createToken(string,uint256,string,uint256)":"d67b2d08","createTransferRequest(address,uint256,uint256)":"97e8a61b","getToken(uint256)":"e4b50cb8","getTokensByOwner(address)":"40398d67","getTransfersByRecipient(address)":"f2270d72","getTransfersBySender(address)":"4e94cef9","nextTokenId()":"75794a3c","nextTransferId()":"b85b381b","rejectTransfer(uint256)":"12effc32","tokens(uint256)":"4f64b2be","transferRequests(uint256)":"03486c40"},"id":17}