{"abi":[{"type":"function","name":"acceptTransfer","inputs":[{"name":"transferId","type":"uint256","internalType":"uint256"}],"outputs":[],"stateMutability":"nonpayable"},{"type":"function","name":"cancelTransfer","inputs":[{"name":"transferId","type":"uint256","internalType":"uint256"}],"outputs":[],"stateMutability":"nonpayable"},{"type":"function","name":"createToken","inputs":[{"name":"name","type":"string","internalType":"string"},{"name":"supply","type":"uint256","internalType":"uint256"},{"name":"features","type":"string","internalType":"string"},{"name":"parentId","type":"uint256","internalType":"uint256"}],"outputs":[{"name":"","type":"uint256","internalType":"uint256"}],"stateMutability":"nonpayable"},{"type":"function","name":"createTransferRequest","inputs":[{"name":"to","type":"address","internalType":"address"},{"name":"tokenId","type":"uint256","internalType":"uint256"},{"name":"amount","type":"uint256","internalType":"uint256"}],"outputs":[{"name":"","type":"uint256","internalType":"uint256"}],"stateMutability":"nonpayable"},{"type":"function","name":"getReceivedBalance","inputs":[{"name":"tokenId","type":"uint256","internalType":"uint256"},{"name":"holder","type":"address","internalType":"address"}],"outputs":[{"name":"","type":"uint256","internalType":"uint256"}],"stateMutability":"view"},{"type":"function","name":"getReceivedBalancesBatch","inputs":[{"name":"tokenIds","type":"uint256[]","internalType":"uint256[]"},{"name":"holder","type":"address","internalType":"address"}],"outputs":[{"name":"","type":"uint256[]","internalType":"uint256[]"}],"stateMutability":"view"},{"type":"function","name":"getToken","inputs":[{"name":"tokenId","type":"uint256","internalType":"uint256"}],"outputs":[{"name":"","type":"tuple","internalType":"struct RawMaterial.Token","components":[{"name":"id","type":"uint256","internalType":"uint256"},{"name":"creator","type":"address","internalType":"address"},{"name":"name","type":"string","internalType":"string"},{"name":"supply","type":"uint256","internalType":"uint256"},{"name":"balance","type":"uint256","internalType":"uint256"},{"name":"features","type":"string","internalType":"string"},{"name":"parentId","type":"uint256","internalType":"uint256"},{"name":"createdAt","type":"uint256","internalType":"uint256"}]}],"stateMutability":"view"},{"type":"function","name":"getTokensByOwner","inputs":[{"name":"owner","type":"address","internalType":"address"}],"outputs":[{"name":"","type":"tuple[]","internalType":"struct RawMaterial.Token[]","components":[{"name":"id","type":"uint256","internalType":"uint256"},{"name":"creator","type":"address","internalType":"address"},{"name":"name","type":"string","internalType":"string"},{"name":"supply","type":"uint256","internalType":"uint256"},{"name":"balance","type":"uint256","internalType":"uint256"},{"name":"features","type":"string","internalType":"string"},{"name":"parentId","type":"uint256","internalType":"uint256"},{"name":"createdAt","type":"uint256","internalType":"uint256"}]}],"stateMutability":"view"},{"type":"function","name":"getTransfersByRecipient","inputs":[{"name":"recipient","type":"address","internalType":"address"}],"outputs":[{"name":"","type":"tuple[]","internalType":"struct RawMaterial.TransferRequest[]","components":[{"name":"id","type":"uint256","internalType":"uint256"},{"name":"tokenId","type":"uint256","internalType":"uint256"},{"name":"from","type":"address","internalType":"address"},{"name":"to","type":"address","internalType":"address"},{"name":"amount","type":"uint256","internalType":"uint256"},{"name":"status","type":"uint8","internalType":"enum RawMaterial.TransferStatus"},{"name":"createdAt","type":"uint256","internalType":"uint256"}]}],"stateMutability":"view"},{"type":"function","name":"getTransfersBySender","inputs":[{"name":"sender","type":"address","internalType":"address"}],"outputs":[{"name":"","type":"tuple[]","internalType":"struct RawMaterial.TransferRequest[]","components":[{"name":"id","type":"uint256","internalType":"uint256"},{"name":"tokenId","type":"uint256","internalType":"uint256"},{"name":"from","type":"address","internalType":"address"},{"name":"to","type":"address","internalType":"address"},{"name":"amount","type":"uint256","internalType":"uint256"},{"name":"status","type":"uint8","internalType":"enum RawMaterial.TransferStatus"},{"name":"createdAt","type":"uint256","internalType":"uint256"}]}],"stateMutability":"view"},{"type":"function","name":"nextTokenId","inputs":[],"outputs":[{"name":"","type":"uint256","internalType":"uint256"}],"stateMutability":"view"},{"type":"function","name":"nextTransferId","inputs":[],"outputs":[{"name":"","type":"uint256","internalType":"uint256"}],"stateMutability":"view"},{"type":"function","name":"rejectTransfer","inputs":[{"name":"transferId","type":"uint256","internalType":"uint256"}],"outputs":[],"stateMutability":"nonpayable"},{"type":"function","name":"tokens","inputs":[{"name":"","type":"uint256","internalType":"uint256"}],"outputs":[{"name":"id","type":"uint256","internalType":"uint256"},{"name":"creator","type":"address","internalType":"address"},{"name":"name","type":"string","internalType":"string"},{"name":"supply","type":"uint256","internalType":"uint256"},{"name":"balance","type":"uint256","internalType":"uint256"},{"name":"features","type":"string","internalType":"string"},{"name":"parentId","type":"uint256","internalType":"uint256"},{"name":"createdAt","type":"uint256","internalType":"uint256"}],"stateMutability":"view"},{"type":"function","name":"transferRequests","inputs":[{"name":"","type":"uint256","internalType":"uint256"}],"outputs":[{"name":"id","type":"uint256","internalType":"uint256"},{"name":"tokenId","type":"uint256","internalType":"uint256"},{"name":"from","type":"address","internalType":"address"},{"name":"to","type":"address","internalType":"address"},{"name":"amount","type":"uint256","internalType":"uint256"},{"name":"status","type":"uint8","internalType":"enum RawMaterial.TransferStatus"},{"name":"createdAt","type":"uint256","internalType":"uint256"}],"stateMutability":"view"},{"type":"event","name":"TokenCreated","inputs":[{"name":"tokenId","type":"uint256","indexed":true,"internalType":"uint256"},{"name":"creator","type":"address","indexed":true,"internalType":"address"},{"name":"name","type":"string","indexed":false,"internalType":"string"},{"name":"supply","type":"uint256","indexed":false,"internalType":"uint256"}],"anonymous":false},{"type":"event","name":"TransferAccepted","inputs":[{"name":"transferId","type":"uint256","indexed":true,"internalType":"uint256"}],"anonymous":false},{"type":"event","name":"TransferCancelled","inputs":[{"name":"transferId","type":"uint256","indexed":true,"internalType":"uint256"}],"anonymous":false},{"type":"event","name":"TransferRejected","inputs":[{"name":"transferId","type":"uint256","indexed":true,"internalType":"uint256"}],"anonymous":false},{"type":"event","name":"TransferRequested","inputs":[{"name":"transferId","type":"uint256","indexed":true,"internalType":"uint256"},{"name":"tokenId","type":"uint256","indexed":true,"internalType":"uint256"},{"name":"from","type":"address","indexed":true,"internalType":"address"},{"name":"to","type":"address","indexed":false,"internalType":"address"},{"name":"amount","type":"uint256","indexed":false,"internalType":"uint256"}],"anonymous":false},{"type":"error","name":"InsufficientBalance","inputs":[]},{"type":"error","name":"InvalidAmount","inputs":[]},{"type":"error","name":"InvalidRecipient","inputs":[]},{"type":"error","name":"NotTokenOwner","inputs":[]},{"type":"error","name":"NotTransferRecipient","inputs":[]},{"type":"error","name":"NotTransferSender","inputs":[]},{"type":"error","name":"TokenNotFound","inputs":[]},{"type":"error","name":"TransferNotFound","inputs":[]},{"type":"error","name":"TransferNotPending","inputs":[]}],"bytecode":{"object":"0x608060405260015f5560018055348015610017575f80fd5b50611c9f806100255f395ff3fe608060405234801561000f575f80fd5b50600436106100f0575f3560e01c80635455d9fe11610093578063b85b381b11610063578063b85b381b1461026a578063d67b2d0814610273578063e4b50cb814610286578063f2270d72146102a6575f80fd5b80635455d9fe1461021b57806359caecb51461023c57806375794a3c1461024f57806397e8a61b14610257575f80fd5b8063274fae7c116100ce578063274fae7c146101a157806340398d67146101b45780634e94cef9146101d45780634f64b2be146101f4575f80fd5b806303486c40146100f45780630ddb04951461016c57806312effc321461018c575b5f80fd5b610150610102366004611574565b600360208190525f91825260409091208054600182015460028301549383015460048401546005850154600690950154939592946001600160a01b03938416949390921692909160ff169087565b60405161016397969594939291906115bf565b60405180910390f35b61017f61017a366004611625565b6102b9565b60405161016391906116a2565b61019f61019a366004611574565b610384565b005b61019f6101af366004611574565b6104ef565b6101c76101c23660046116e5565b610696565b60405161016391906117c8565b6101e76101e23660046116e5565b6108df565b604051610163919061182a565b610207610202366004611574565b610a63565b6040516101639897969594939291906118c3565b61022e610229366004611925565b610bba565b604051908152602001610163565b61019f61024a366004611574565b610be3565b61022e5f5481565b61022e61026536600461194f565b610d4c565b61022e60015481565b61022e610281366004611a1c565b611033565b610299610294366004611574565b6111ee565b6040516101639190611a8c565b6101e76102b43660046116e5565b6113a8565b60605f8367ffffffffffffffff8111156102d5576102d561197f565b6040519080825280602002602001820160405280156102fe578160200160208202803683370190505b5090505f5b8481101561037b5760075f87878481811061032057610320611a9e565b9050602002013581526020019081526020015f205f856001600160a01b03166001600160a01b031681526020019081526020015f205482828151811061036857610368611a9e565b6020908102919091010152600101610303565b50949350505050565b5f81815260036020526040812080549091036103b357604051632b44303360e11b815260040160405180910390fd5b60038101546001600160a01b031633146103e057604051632fe6cf8360e21b815260040160405180910390fd5b5f600582015460ff1660038111156103fa576103fa61158b565b14610418576040516308cd5ef960e31b815260040160405180910390fd5b60058101805460ff191660031790556001808201545f908152600260208190526040909120908301549181015490916001600160a01b0390811691160361047b578160040154816004015f8282546104709190611ac6565b909155506104c09050565b600482015460018301545f90815260076020908152604080832060028701546001600160a01b03168452909152812080549091906104ba908490611ac6565b90915550505b60405183907f1f4f8a94e17d25044030f376d297769c8f9a1a2a0616e36b498a1e7370b5863f905f90a2505050565b5f818152600360205260408120805490910361051e57604051632b44303360e11b815260040160405180910390fd5b60038101546001600160a01b0316331461054b57604051632fe6cf8360e21b815260040160405180910390fd5b5f600582015460ff1660038111156105655761056561158b565b14610583576040516308cd5ef960e31b815260040160405180910390fd5b60058101805460ff191660019081179091556004820154908201545f90815260076020908152604080832060038601546001600160a01b03168452909152812080549091906105d3908490611ac6565b909155505060038101546001600160a01b03165f9081526008602090815260408083206001850154845290915290205460ff16610668576003810180546001600160a01b039081165f90815260046020908152604080832060018088018054835480840185559387528587209093019290925595549094168352600882528083209354835292905220805460ff191690911790555b60405182907f91dd4234b45d77221e6eca52c141569a6d0f3b3ffe9b8a18fe8b9aafbc64b44b905f90a25050565b6001600160a01b0381165f90815260046020526040812080546060929067ffffffffffffffff8111156106cb576106cb61197f565b60405190808252806020026020018201604052801561070457816020015b6106f161152c565b8152602001906001900390816106e95790505b5090505f5b82548110156108d75760025f84838154811061072757610727611a9e565b5f918252602080832090910154835282810193909352604091820190208151610100810183528154815260018201546001600160a01b031693810193909352600281018054919284019161077a90611ad9565b80601f01602080910402602001604051908101604052809291908181526020018280546107a690611ad9565b80156107f15780601f106107c8576101008083540402835291602001916107f1565b820191905f5260205f20905b8154815290600101906020018083116107d457829003601f168201915b50505050508152602001600382015481526020016004820154815260200160058201805461081e90611ad9565b80601f016020809104026020016040519081016040528092919081815260200182805461084a90611ad9565b80156108955780601f1061086c57610100808354040283529160200191610895565b820191905f5260205f20905b81548152906001019060200180831161087857829003601f168201915b50505050508152602001600682015481526020016007820154815250508282815181106108c4576108c4611a9e565b6020908102919091010152600101610709565b509392505050565b6001600160a01b0381165f90815260056020526040812080546060929067ffffffffffffffff8111156109145761091461197f565b60405190808252806020026020018201604052801561097957816020015b6040805160e0810182525f8082526020808301829052928201819052606082018190526080820181905260a0820181905260c082015282525f199092019101816109325790505b5090505f5b82548110156108d75760035f84838154811061099c5761099c611a9e565b5f91825260208083209091015483528281019390935260409182019020815160e0810183528154815260018201549381019390935260028101546001600160a01b03908116928401929092526003808201549092166060840152600481015460808401526005810154909160a084019160ff1690811115610a1f57610a1f61158b565b6003811115610a3057610a3061158b565b8152602001600682015481525050828281518110610a5057610a50611a9e565b602090810291909101015260010161097e565b600260208190525f918252604090912080546001820154928201805491936001600160a01b03169291610a9590611ad9565b80601f0160208091040260200160405190810160405280929190818152602001828054610ac190611ad9565b8015610b0c5780601f10610ae357610100808354040283529160200191610b0c565b820191905f5260205f20905b815481529060010190602001808311610aef57829003601f168201915b505050505090806003015490806004015490806005018054610b2d90611ad9565b80601f0160208091040260200160405190810160405280929190818152602001828054610b5990611ad9565b8015610ba45780601f10610b7b57610100808354040283529160200191610ba4565b820191905f5260205f20905b815481529060010190602001808311610b8757829003601f168201915b5050505050908060060154908060070154905088565b5f8281526007602090815260408083206001600160a01b03851684529091529020545b92915050565b5f8181526003602052604081208054909103610c1257604051632b44303360e11b815260040160405180910390fd5b60028101546001600160a01b03163314610c3f57604051631cb2f8fb60e01b815260040160405180910390fd5b5f600582015460ff166003811115610c5957610c5961158b565b14610c77576040516308cd5ef960e31b815260040160405180910390fd5b60058101805460ff191660029081179091556001808301545f90815260208390526040902091830154908201546001600160a01b03918216911603610cd8578160040154816004015f828254610ccd9190611ac6565b90915550610d1d9050565b600482015460018301545f90815260076020908152604080832060028701546001600160a01b0316845290915281208054909190610d17908490611ac6565b90915550505b60405183907f80325e888c1c82b732ed61a3aaa950ae32a233290f74a648d1a3339666450345905f90a2505050565b5f6001600160a01b038416610d7457604051634e46966960e11b815260040160405180910390fd5b815f03610d945760405163162908e360e11b815260040160405180910390fd5b5f8381526002602052604081208054909103610dc357604051630cbdb7b360e41b815260040160405180910390fd5b60018101546001600160a01b031633145f81610df7575f868152600760209081526040808320338452909152902054610dfd565b82600401545b905081158015610e0b575080155b15610e29576040516359dc379f60e01b815260040160405180910390fd5b84811015610e4a57604051631e9acf1760e31b815260040160405180910390fd5b8115610e6e5784836004015f828254610e639190611b11565b90915550610e9c9050565b5f86815260076020908152604080832033845290915281208054879290610e96908490611b11565b90915550505b600180545f9182610eac83611b24565b9190505590506040518060e00160405280828152602001888152602001336001600160a01b03168152602001896001600160a01b031681526020018781526020015f6003811115610eff57610eff61158b565b8152426020918201525f83815260038083526040918290208451815592840151600180850191909155918401516002840180546001600160a01b039283166001600160a01b031991821617909155606086015185840180549190931691161790556080840151600484015560a08401516005840180549193909260ff19909216918490811115610f9157610f9161158b565b021790555060c09190910151600691820155335f818152600560209081526040808320805460018082018355918552838520018790556001600160a01b038e1680855295835281842080549182018155845292829020909201859055815193845283018990529091899184917f5fb2e4d56c3e24ecd6780a45d26149b6188355d17bd78ce1c14e0daf26c354fd910160405180910390a4979650505050505050565b5f835f036110545760405163162908e360e11b815260040160405180910390fd5b5f8211801561106e57505f82815260026020526040902054155b1561108c57604051630cbdb7b360e41b815260040160405180910390fd5b5f8054818061109a83611b24565b9091555060408051610100810182528281523360208083019182528284018b8152606084018b9052608084018b905260a084018a905260c084018990524260e08501525f868152600292839052949094208351815591516001830180546001600160a01b0319166001600160a01b039092169190911790559251939450909290918201906111289082611b88565b50606082015160038201556080820151600482015560a082015160058201906111519082611b88565b5060c0820151600682015560e090910151600790910155335f818152600460209081526040808320805460018181018355918552838520018690558484526008835281842086855290925291829020805460ff191690911790555182907f463ec2a62c46678a81e23cde640446ca4b512f102bb3309cf5a3e2a4ae831464906111dd908a908a90611c48565b60405180910390a395945050505050565b6111f661152c565b5f82815260026020526040812054900361122357604051630cbdb7b360e41b815260040160405180910390fd5b5f828152600260208181526040928390208351610100810185528154815260018201546001600160a01b0316928101929092529182018054919384019161126990611ad9565b80601f016020809104026020016040519081016040528092919081815260200182805461129590611ad9565b80156112e05780601f106112b7576101008083540402835291602001916112e0565b820191905f5260205f20905b8154815290600101906020018083116112c357829003601f168201915b50505050508152602001600382015481526020016004820154815260200160058201805461130d90611ad9565b80601f016020809104026020016040519081016040528092919081815260200182805461133990611ad9565b80156113845780601f1061135b57610100808354040283529160200191611384565b820191905f5260205f20905b81548152906001019060200180831161136757829003601f168201915b50505050508152602001600682015481526020016007820154815250509050919050565b6001600160a01b0381165f90815260066020526040812080546060929067ffffffffffffffff8111156113dd576113dd61197f565b60405190808252806020026020018201604052801561144257816020015b6040805160e0810182525f8082526020808301829052928201819052606082018190526080820181905260a0820181905260c082015282525f199092019101816113fb5790505b5090505f5b82548110156108d75760035f84838154811061146557611465611a9e565b5f91825260208083209091015483528281019390935260409182019020815160e0810183528154815260018201549381019390935260028101546001600160a01b03908116928401929092526003808201549092166060840152600481015460808401526005810154909160a084019160ff16908111156114e8576114e861158b565b60038111156114f9576114f961158b565b815260200160068201548152505082828151811061151957611519611a9e565b6020908102919091010152600101611447565b6040518061010001604052805f81526020015f6001600160a01b03168152602001606081526020015f81526020015f8152602001606081526020015f81526020015f81525090565b5f60208284031215611584575f80fd5b5035919050565b634e487b7160e01b5f52602160045260245ffd5b600481106115bb57634e487b7160e01b5f52602160045260245ffd5b9052565b878152602081018790526001600160a01b038681166040830152851660608201526080810184905260e081016115f860a083018561159f565b8260c083015298975050505050505050565b80356001600160a01b0381168114611620575f80fd5b919050565b5f805f60408486031215611637575f80fd5b833567ffffffffffffffff8082111561164e575f80fd5b818601915086601f830112611661575f80fd5b81358181111561166f575f80fd5b8760208260051b8501011115611683575f80fd5b602092830195509350611699918601905061160a565b90509250925092565b602080825282518282018190525f9190848201906040850190845b818110156116d9578351835292840192918401916001016116bd565b50909695505050505050565b5f602082840312156116f5575f80fd5b6116fe8261160a565b9392505050565b5f81518084525f5b818110156117295760208185018101518683018201520161170d565b505f602082860101526020601f19601f83011685010191505092915050565b5f6101008251845260018060a01b036020840151166020850152604083015181604086015261177982860182611705565b915050606083015160608501526080830151608085015260a083015184820360a08601526117a78282611705565b91505060c083015160c085015260e083015160e08501528091505092915050565b5f60208083016020845280855180835260408601915060408160051b8701019250602087015f5b8281101561181d57603f1988860301845261180b858351611748565b945092850192908501906001016117ef565b5092979650505050505050565b602080825282518282018190525f919060409081850190868401855b828110156118b6578151805185528681015187860152858101516001600160a01b0390811687870152606080830151909116908601526080808201519086015260a0808201516118988288018261159f565b505060c0908101519085015260e09093019290850190600101611846565b5091979650505050505050565b8881526001600160a01b0388166020820152610100604082018190525f906118ed8382018a611705565b905087606084015286608084015282810360a084015261190d8187611705565b60c0840195909552505060e001529695505050505050565b5f8060408385031215611936575f80fd5b823591506119466020840161160a565b90509250929050565b5f805f60608486031215611961575f80fd5b61196a8461160a565b95602085013595506040909401359392505050565b634e487b7160e01b5f52604160045260245ffd5b5f82601f8301126119a2575f80fd5b813567ffffffffffffffff808211156119bd576119bd61197f565b604051601f8301601f19908116603f011681019082821181831017156119e5576119e561197f565b816040528381528660208588010111156119fd575f80fd5b836020870160208301375f602085830101528094505050505092915050565b5f805f8060808587031215611a2f575f80fd5b843567ffffffffffffffff80821115611a46575f80fd5b611a5288838901611993565b9550602087013594506040870135915080821115611a6e575f80fd5b50611a7b87828801611993565b949793965093946060013593505050565b602081525f6116fe6020830184611748565b634e487b7160e01b5f52603260045260245ffd5b634e487b7160e01b5f52601160045260245ffd5b80820180821115610bdd57610bdd611ab2565b600181811c90821680611aed57607f821691505b602082108103611b0b57634e487b7160e01b5f52602260045260245ffd5b50919050565b81810381811115610bdd57610bdd611ab2565b5f60018201611b3557611b35611ab2565b5060010190565b601f821115611b8357805f5260205f20601f840160051c81016020851015611b615750805b601f840160051c820191505b81811015611b80575f8155600101611b6d565b50505b505050565b815167ffffffffffffffff811115611ba257611ba261197f565b611bb681611bb08454611ad9565b84611b3c565b602080601f831160018114611be9575f8415611bd25750858301515b5f19600386901b1c1916600185901b178555611c40565b5f85815260208120601f198616915b82811015611c1757888601518255948401946001909101908401611bf8565b5085821015611c3457878501515f19600388901b60f8161c191681555b505060018460011b0185555b505050505050565b604081525f611c5a6040830185611705565b9050826020830152939250505056fea26469706673582212207c44dd52ddba31e963453732c85d29c2fd9f851c8d3034cb318300a416e6a4cc64736f6c63430008180033","linkReferences":{}},"methodIdentifiers":{"acceptTransfer(uint256)":"274fae7c","cancelTransfer(uint256)":"59caecb5","createToken(string,uint256,string,uint256)":"d67b2d08","createTransferRequest(address,uint256,uint256)":"97e8a61b","getReceivedBalance(uint256,address)":"5455d9fe","getReceivedBalancesBatch(uint256[],address)":"0ddb0495","getToken(uint256)":"e4b50cb8","getTokensByOwner(address)":"40398d67","getTransfersByRecipient(address)":"f2270d72","getTransfersBySender(address)":"4e94cef9","nextTokenId()":"75794a3c","nextTransferId()":"b85b381b","rejectTransfer(uint256)":"12effc32","tokens(uint256)":"4f64b2be","transferRequests(uint256)":"03486c40"},"id":17}