{"abi":[{"type":"constructor","inputs":[{"name":"_admin","type":"address","internalType":"address"}],"stateMutability":"nonpayable"},{"type":"function","name":"MAX_COLD_TEMP","inputs":[],"outputs":[{"name":"","type":"int256","internalType":"int256"}],"stateMutability":"view"},{"type":"function","name":"MIN_COLD_TEMP","inputs":[],"outputs":[{"name":"","type":"int256","internalType":"int256"}],"stateMutability":"view"},{"type":"function","name":"actors","inputs":[{"name":"","type":"address","internalType":"address"}],"outputs":[{"name":"actorAddress","type":"address","internalType":"address"},{"name":"name","type":"string","internalType":"string"},{"name":"role","type":"uint8","internalType":"enum LogisticsTracking.ActorRole"},{"name":"location","type":"string","internalType":"string"},{"name":"isActive","type":"bool","internalType":"bool"}],"stateMutability":"view"},{"type":"function","name":"admin","inputs":[],"outputs":[{"name":"","type":"address","internalType":"address"}],"stateMutability":"view"},{"type":"function","name":"cancelShipment","inputs":[{"name":"_shipmentId","type":"uint256","internalType":"uint256"}],"outputs":[],"stateMutability":"nonpayable"},{"type":"function","name":"checkpoints","inputs":[{"name":"","type":"uint256","internalType":"uint256"}],"outputs":[{"name":"id","type":"uint256","internalType":"uint256"},{"name":"shipmentId","type":"uint256","internalType":"uint256"},{"name":"actor","type":"address","internalType":"address"},{"name":"location","type":"string","internalType":"string"},{"name":"checkpointType","type":"string","internalType":"string"},{"name":"timestamp","type":"uint256","internalType":"uint256"},{"name":"notes","type":"string","internalType":"string"},{"name":"temperature","type":"int256","internalType":"int256"}],"stateMutability":"view"},{"type":"function","name":"confirmDelivery","inputs":[{"name":"_shipmentId","type":"uint256","internalType":"uint256"}],"outputs":[],"stateMutability":"nonpayable"},{"type":"function","name":"createShipment","inputs":[{"name":"_recipient","type":"address","internalType":"address"},{"name":"_product","type":"string","internalType":"string"},{"name":"_origin","type":"string","internalType":"string"},{"name":"_destination","type":"string","internalType":"string"},{"name":"_requiresColdChain","type":"bool","internalType":"bool"}],"outputs":[{"name":"","type":"uint256","internalType":"uint256"}],"stateMutability":"nonpayable"},{"type":"function","name":"deactivateActor","inputs":[{"name":"_actorAddress","type":"address","internalType":"address"}],"outputs":[],"stateMutability":"nonpayable"},{"type":"function","name":"getActor","inputs":[{"name":"_actorAddress","type":"address","internalType":"address"}],"outputs":[{"name":"","type":"tuple","internalType":"struct LogisticsTracking.Actor","components":[{"name":"actorAddress","type":"address","internalType":"address"},{"name":"name","type":"string","internalType":"string"},{"name":"role","type":"uint8","internalType":"enum LogisticsTracking.ActorRole"},{"name":"location","type":"string","internalType":"string"},{"name":"isActive","type":"bool","internalType":"bool"}]}],"stateMutability":"view"},{"type":"function","name":"getActorShipments","inputs":[{"name":"_actor","type":"address","internalType":"address"}],"outputs":[{"name":"","type":"uint256[]","internalType":"uint256[]"}],"stateMutability":"view"},{"type":"function","name":"getCheckpoint","inputs":[{"name":"_checkpointId","type":"uint256","internalType":"uint256"}],"outputs":[{"name":"","type":"tuple","internalType":"struct LogisticsTracking.Checkpoint","components":[{"name":"id","type":"uint256","internalType":"uint256"},{"name":"shipmentId","type":"uint256","internalType":"uint256"},{"name":"actor","type":"address","internalType":"address"},{"name":"location","type":"string","internalType":"string"},{"name":"checkpointType","type":"string","internalType":"string"},{"name":"timestamp","type":"uint256","internalType":"uint256"},{"name":"notes","type":"string","internalType":"string"},{"name":"temperature","type":"int256","internalType":"int256"}]}],"stateMutability":"view"},{"type":"function","name":"getIncident","inputs":[{"name":"_incidentId","type":"uint256","internalType":"uint256"}],"outputs":[{"name":"","type":"tuple","internalType":"struct LogisticsTracking.Incident","components":[{"name":"id","type":"uint256","internalType":"uint256"},{"name":"shipmentId","type":"uint256","internalType":"uint256"},{"name":"incidentType","type":"uint8","internalType":"enum LogisticsTracking.IncidentType"},{"name":"reporter","type":"address","internalType":"address"},{"name":"description","type":"string","internalType":"string"},{"name":"timestamp","type":"uint256","internalType":"uint256"},{"name":"resolved","type":"bool","internalType":"bool"}]}],"stateMutability":"view"},{"type":"function","name":"getShipment","inputs":[{"name":"_shipmentId","type":"uint256","internalType":"uint256"}],"outputs":[{"name":"","type":"tuple","internalType":"struct LogisticsTracking.Shipment","components":[{"name":"id","type":"uint256","internalType":"uint256"},{"name":"sender","type":"address","internalType":"address"},{"name":"recipient","type":"address","internalType":"address"},{"name":"product","type":"string","internalType":"string"},{"name":"origin","type":"string","internalType":"string"},{"name":"destination","type":"string","internalType":"string"},{"name":"dateCreated","type":"uint256","internalType":"uint256"},{"name":"dateDelivered","type":"uint256","internalType":"uint256"},{"name":"status","type":"uint8","internalType":"enum LogisticsTracking.ShipmentStatus"},{"name":"checkpointIds","type":"uint256[]","internalType":"uint256[]"},{"name":"incidentIds","type":"uint256[]","internalType":"uint256[]"},{"name":"requiresColdChain","type":"bool","internalType":"bool"}]}],"stateMutability":"view"},{"type":"function","name":"getShipmentCheckpoints","inputs":[{"name":"_shipmentId","type":"uint256","internalType":"uint256"}],"outputs":[{"name":"","type":"tuple[]","internalType":"struct LogisticsTracking.Checkpoint[]","components":[{"name":"id","type":"uint256","internalType":"uint256"},{"name":"shipmentId","type":"uint256","internalType":"uint256"},{"name":"actor","type":"address","internalType":"address"},{"name":"location","type":"string","internalType":"string"},{"name":"checkpointType","type":"string","internalType":"string"},{"name":"timestamp","type":"uint256","internalType":"uint256"},{"name":"notes","type":"string","internalType":"string"},{"name":"temperature","type":"int256","internalType":"int256"}]}],"stateMutability":"view"},{"type":"function","name":"getShipmentIncidents","inputs":[{"name":"_shipmentId","type":"uint256","internalType":"uint256"}],"outputs":[{"name":"","type":"tuple[]","internalType":"struct LogisticsTracking.Incident[]","components":[{"name":"id","type":"uint256","internalType":"uint256"},{"name":"shipmentId","type":"uint256","internalType":"uint256"},{"name":"incidentType","type":"uint8","internalType":"enum LogisticsTracking.IncidentType"},{"name":"reporter","type":"address","internalType":"address"},{"name":"description","type":"string","internalType":"string"},{"name":"timestamp","type":"uint256","internalType":"uint256"},{"name":"resolved","type":"bool","internalType":"bool"}]}],"stateMutability":"view"},{"type":"function","name":"incidents","inputs":[{"name":"","type":"uint256","internalType":"uint256"}],"outputs":[{"name":"id","type":"uint256","internalType":"uint256"},{"name":"shipmentId","type":"uint256","internalType":"uint256"},{"name":"incidentType","type":"uint8","internalType":"enum LogisticsTracking.IncidentType"},{"name":"reporter","type":"address","internalType":"address"},{"name":"description","type":"string","internalType":"string"},{"name":"timestamp","type":"uint256","internalType":"uint256"},{"name":"resolved","type":"bool","internalType":"bool"}],"stateMutability":"view"},{"type":"function","name":"nextCheckpointId","inputs":[],"outputs":[{"name":"","type":"uint256","internalType":"uint256"}],"stateMutability":"view"},{"type":"function","name":"nextIncidentId","inputs":[],"outputs":[{"name":"","type":"uint256","internalType":"uint256"}],"stateMutability":"view"},{"type":"function","name":"nextShipmentId","inputs":[],"outputs":[{"name":"","type":"uint256","internalType":"uint256"}],"stateMutability":"view"},{"type":"function","name":"recordCheckpoint","inputs":[{"name":"_shipmentId","type":"uint256","internalType":"uint256"},{"name":"_location","type":"string","internalType":"string"},{"name":"_checkpointType","type":"string","internalType":"string"},{"name":"_notes","type":"string","internalType":"string"},{"name":"_temperature","type":"int256","internalType":"int256"}],"outputs":[{"name":"","type":"uint256","internalType":"uint256"}],"stateMutability":"nonpayable"},{"type":"function","name":"registerActor","inputs":[{"name":"_name","type":"string","internalType":"string"},{"name":"_role","type":"uint8","internalType":"enum LogisticsTracking.ActorRole"},{"name":"_location","type":"string","internalType":"string"}],"outputs":[],"stateMutability":"nonpayable"},{"type":"function","name":"reportIncident","inputs":[{"name":"_shipmentId","type":"uint256","internalType":"uint256"},{"name":"_incidentType","type":"uint8","internalType":"enum LogisticsTracking.IncidentType"},{"name":"_description","type":"string","internalType":"string"}],"outputs":[{"name":"","type":"uint256","internalType":"uint256"}],"stateMutability":"nonpayable"},{"type":"function","name":"resolveIncident","inputs":[{"name":"_incidentId","type":"uint256","internalType":"uint256"}],"outputs":[],"stateMutability":"nonpayable"},{"type":"function","name":"shipments","inputs":[{"name":"","type":"uint256","internalType":"uint256"}],"outputs":[{"name":"id","type":"uint256","internalType":"uint256"},{"name":"sender","type":"address","internalType":"address"},{"name":"recipient","type":"address","internalType":"address"},{"name":"product","type":"string","internalType":"string"},{"name":"origin","type":"string","internalType":"string"},{"name":"destination","type":"string","internalType":"string"},{"name":"dateCreated","type":"uint256","internalType":"uint256"},{"name":"dateDelivered","type":"uint256","internalType":"uint256"},{"name":"status","type":"uint8","internalType":"enum LogisticsTracking.ShipmentStatus"},{"name":"requiresColdChain","type":"bool","internalType":"bool"}],"stateMutability":"view"},{"type":"function","name":"updateShipmentStatus","inputs":[{"name":"_shipmentId","type":"uint256","internalType":"uint256"},{"name":"_newStatus","type":"uint8","internalType":"enum LogisticsTracking.ShipmentStatus"}],"outputs":[],"stateMutability":"nonpayable"},{"type":"function","name":"verifyTemperatureCompliance","inputs":[{"name":"_shipmentId","type":"uint256","internalType":"uint256"}],"outputs":[{"name":"","type":"bool","internalType":"bool"}],"stateMutability":"view"},{"type":"event","name":"ActorRegistered","inputs":[{"name":"actorAddress","type":"address","indexed":true,"internalType":"address"},{"name":"name","type":"string","indexed":false,"internalType":"string"},{"name":"role","type":"uint8","indexed":false,"internalType":"enum LogisticsTracking.ActorRole"}],"anonymous":false},{"type":"event","name":"CheckpointRecorded","inputs":[{"name":"checkpointId","type":"uint256","indexed":true,"internalType":"uint256"},{"name":"shipmentId","type":"uint256","indexed":true,"internalType":"uint256"},{"name":"location","type":"string","indexed":false,"internalType":"string"},{"name":"actor","type":"address","indexed":false,"internalType":"address"}],"anonymous":false},{"type":"event","name":"DeliveryConfirmed","inputs":[{"name":"shipmentId","type":"uint256","indexed":true,"internalType":"uint256"},{"name":"recipient","type":"address","indexed":true,"internalType":"address"},{"name":"timestamp","type":"uint256","indexed":false,"internalType":"uint256"}],"anonymous":false},{"type":"event","name":"IncidentReported","inputs":[{"name":"incidentId","type":"uint256","indexed":true,"internalType":"uint256"},{"name":"shipmentId","type":"uint256","indexed":true,"internalType":"uint256"},{"name":"incidentType","type":"uint8","indexed":false,"internalType":"enum LogisticsTracking.IncidentType"}],"anonymous":false},{"type":"event","name":"IncidentResolved","inputs":[{"name":"incidentId","type":"uint256","indexed":true,"internalType":"uint256"}],"anonymous":false},{"type":"event","name":"ShipmentCreated","inputs":[{"name":"shipmentId","type":"uint256","indexed":true,"internalType":"uint256"},{"name":"sender","type":"address","indexed":true,"internalType":"address"},{"name":"recipient","type":"address","indexed":true,"internalType":"address"},{"name":"product","type":"string","indexed":false,"internalType":"string"}],"anonymous":false},{"type":"event","name":"ShipmentStatusChanged","inputs":[{"name":"shipmentId","type":"uint256","indexed":true,"internalType":"uint256"},{"name":"newStatus","type":"uint8","indexed":false,"internalType":"enum LogisticsTracking.ShipmentStatus"}],"anonymous":false},{"type":"error","name":"ActorInactive","inputs":[]},{"type":"error","name":"ActorNotRegistered","inputs":[]},{"type":"error","name":"AlreadyDelivered","inputs":[]},{"type":"error","name":"CheckpointNotFound","inputs":[]},{"type":"error","name":"IncidentNotFound","inputs":[]},{"type":"error","name":"InvalidRecipient","inputs":[]},{"type":"error","name":"InvalidStatus","inputs":[]},{"type":"error","name":"NotAdmin","inputs":[]},{"type":"error","name":"ShipmentNotFound","inputs":[]},{"type":"error","name":"Unauthorized","inputs":[]}],"bytecode":{"object":"0x608060405260018055600160025560016003553480156200001e575f80fd5b506040516200369338038062003693833981016040819052620000419162000066565b5f80546001600160a01b0319166001600160a01b039290921691909117905562000095565b5f6020828403121562000077575f80fd5b81516001600160a01b03811681146200008e575f80fd5b9392505050565b6135f080620000a35f395ff3fe608060405234801561000f575f80fd5b50600436106101a1575f3560e01c8063733e28aa116100f3578063b9a3a68c11610093578063eaa66a3c1161006e578063eaa66a3c146103e3578063f851a44014610407578063fc43669514610431578063fd84cb9714610444575f80fd5b8063b9a3a68c146103b4578063c4edcf8b146103bd578063e570c367146103d0575f80fd5b80639578615e116100ce5780639578615e14610324578063a6c6a8f314610344578063af56a4281461036a578063b8a242521461038d575f80fd5b8063733e28aa146102de5780637defa920146102fe5780637faa7bc714610311575f80fd5b80632ac08a931161015e578063475b6f9811610139578063475b6f98146102765780634ffe6ae2146102895780635f19f4f51461029e57806372f2f93a146102be575f80fd5b80632ac08a931461021a57806333401ee1146102435780634138d16714610256575f80fd5b806303fe200f146101a5578063092b3740146101c05780630c427264146101e05780630fd19668146101e857806320fc4881146101f1578063229ec45214610211575b5f80fd5b6101ad601481565b6040519081526020015b60405180910390f35b6101d36101ce366004612a7a565b610457565b6040516101b79190612b36565b6101ad605081565b6101ad60035481565b6102046101ff366004612a7a565b610792565b6040516101b79190612ce7565b6101ad60025481565b61022d610228366004612a7a565b6109d9565b6040516101b79a99989796959493929190612cf9565b6101ad610251366004612e25565b610bcd565b610269610264366004612ed3565b610d99565b6040516101b79190612efc565b6101ad610284366004612f72565b610f65565b61029c610297366004612a7a565b611292565b005b6102b16102ac366004612a7a565b611347565b6040516101b7919061301d565b6102d16102cc366004612ed3565b611622565b6040516101b7919061307f565b6102f16102ec366004612a7a565b61168b565b6040516101b79190613141565b61029c61030c366004613196565b61186a565b61029c61031f366004612a7a565b6119a0565b610337610332366004612a7a565b611a83565b6040516101b791906131c7565b610357610352366004612a7a565b611be2565b6040516101b797969594939291906131d9565b61037d610378366004612a7a565b611cb6565b60405190151581526020016101b7565b6103a061039b366004612a7a565b612053565b6040516101b7989796959493929190613230565b6101ad60015481565b61029c6103cb3660046132a5565b612231565b6101ad6103de36600461331b565b61237d565b6103f66103f1366004612ed3565b612550565b6040516101b7959493929190613369565b5f54610419906001600160a01b031681565b6040516001600160a01b0390911681526020016101b7565b61029c61043f366004612ed3565b6126a0565b61029c610452366004612a7a565b612724565b61045f61290e565b5f82815260046020526040812054900361048c5760405163124b8b2b60e31b815260040160405180910390fd5b5f828152600460209081526040918290208251610180810184528154815260018201546001600160a01b03908116938201939093526002820154909216928201929092526003820180549192916060840191906104e8906133c0565b80601f0160208091040260200160405190810160405280929190818152602001828054610514906133c0565b801561055f5780601f106105365761010080835404028352916020019161055f565b820191905f5260205f20905b81548152906001019060200180831161054257829003601f168201915b50505050508152602001600482018054610578906133c0565b80601f01602080910402602001604051908101604052809291908181526020018280546105a4906133c0565b80156105ef5780601f106105c6576101008083540402835291602001916105ef565b820191905f5260205f20905b8154815290600101906020018083116105d257829003601f168201915b50505050508152602001600582018054610608906133c0565b80601f0160208091040260200160405190810160405280929190818152602001828054610634906133c0565b801561067f5780601f106106565761010080835404028352916020019161067f565b820191905f5260205f20905b81548152906001019060200180831161066257829003601f168201915b5050509183525050600682810154602083015260078301546040830152600883015460609092019160ff16908111156106ba576106ba612ad4565b60068111156106cb576106cb612ad4565b81526020016009820180548060200260200160405190810160405280929190818152602001828054801561071c57602002820191905f5260205f20905b815481526020019060010190808311610708575b50505050508152602001600a820180548060200260200160405190810160405280929190818152602001828054801561077257602002820191905f5260205f20905b81548152602001906001019080831161075e575b5050509183525050600b919091015460ff16151560209091015292915050565b61079a61298a565b5f8281526005602052604081205490036107c757604051635f396ed360e11b815260040160405180910390fd5b5f828152600560209081526040918290208251610100810184528154815260018201549281019290925260028101546001600160a01b03169282019290925260038201805491929160608401919061081e906133c0565b80601f016020809104026020016040519081016040528092919081815260200182805461084a906133c0565b80156108955780601f1061086c57610100808354040283529160200191610895565b820191905f5260205f20905b81548152906001019060200180831161087857829003601f168201915b505050505081526020016004820180546108ae906133c0565b80601f01602080910402602001604051908101604052809291908181526020018280546108da906133c0565b80156109255780601f106108fc57610100808354040283529160200191610925565b820191905f5260205f20905b81548152906001019060200180831161090857829003601f168201915b5050505050815260200160058201548152602001600682018054610948906133c0565b80601f0160208091040260200160405190810160405280929190818152602001828054610974906133c0565b80156109bf5780601f10610996576101008083540402835291602001916109bf565b820191905f5260205f20905b8154815290600101906020018083116109a257829003601f168201915b505050505081526020016007820154815250509050919050565b60046020525f9081526040902080546001820154600283015460038401805493946001600160a01b03938416949390921692610a14906133c0565b80601f0160208091040260200160405190810160405280929190818152602001828054610a40906133c0565b8015610a8b5780601f10610a6257610100808354040283529160200191610a8b565b820191905f5260205f20905b815481529060010190602001808311610a6e57829003601f168201915b505050505090806004018054610aa0906133c0565b80601f0160208091040260200160405190810160405280929190818152602001828054610acc906133c0565b8015610b175780601f10610aee57610100808354040283529160200191610b17565b820191905f5260205f20905b815481529060010190602001808311610afa57829003601f168201915b505050505090806005018054610b2c906133c0565b80601f0160208091040260200160405190810160405280929190818152602001828054610b58906133c0565b8015610ba35780601f10610b7a57610100808354040283529160200191610ba3565b820191905f5260205f20905b815481529060010190602001808311610b8657829003601f168201915b505050600684015460078501546008860154600b909601549495919490935060ff9182169250168a565b335f9081526007602052604081206004015460ff16610bff57604051632a718ceb60e01b815260040160405180910390fd5b5f868152600460205260408120549003610c2c5760405163124b8b2b60e31b815260040160405180910390fd5b600280545f9182610c3c836133f8565b90915550604080516101008101825282815260208082018b815233838501908152606084018c8152608085018c90524260a086015260c085018b905260e085018a90525f878152600590945294909220835181559051600182015590516002820180546001600160a01b0319166001600160a01b039092169190911790559151929350916003820190610ccf9082613468565b5060808201516004820190610ce49082613468565b5060a0820151600582015560c08201516006820190610d039082613468565b5060e091909101516007909101555f8781526004602090815260408083206009908101805460018181018355918652848620018690558b8552908352818420805491820181558452919092200182905551879082907f866de744a1d30941b1bccb4355cfb9dacfa65296f3ab651a0d4dce76bf988a7190610d87908a903390613528565b60405180910390a39695505050505050565b610dc96040805160a0810182525f8082526060602083015290918201908152606060208201525f60409091015290565b6001600160a01b038083165f90815260076020908152604091829020825160a081019093528054909316825260018301805492939291840191610e0b906133c0565b80601f0160208091040260200160405190810160405280929190818152602001828054610e37906133c0565b8015610e825780601f10610e5957610100808354040283529160200191610e82565b820191905f5260205f20905b815481529060010190602001808311610e6557829003601f168201915b5050509183525050600282015460209091019060ff166005811115610ea957610ea9612ad4565b6005811115610eba57610eba612ad4565b8152602001600382018054610ece906133c0565b80601f0160208091040260200160405190810160405280929190818152602001828054610efa906133c0565b8015610f455780601f10610f1c57610100808354040283529160200191610f45565b820191905f5260205f20905b815481529060010190602001808311610f2857829003601f168201915b50505091835250506004919091015460ff16151560209091015292915050565b335f9081526007602052604081206004015460ff16610f9757604051632a718ceb60e01b815260040160405180910390fd5b6001335f9081526007602052604090206002015460ff166005811115610fbf57610fbf612ad4565b14610fdc576040516282b42960e81b815260040160405180910390fd5b6001600160a01b03861661100357604051634e46966960e11b815260040160405180910390fd5b600180545f9182611013836133f8565b919050559050604051806101800160405280828152602001336001600160a01b03168152602001886001600160a01b031681526020018781526020018681526020018581526020014281526020015f81526020015f600681111561107957611079612ad4565b81526020015f6040519080825280602002602001820160405280156110a8578160200160208202803683370190505b5081526020015f6040519080825280602002602001820160405280156110d8578160200160208202803683370190505b5081528415156020918201525f8381526004825260409081902083518155918301516001830180546001600160a01b03199081166001600160a01b0393841617909155918401516002840180549093169116179055606082015160038201906111419082613468565b50608082015160048201906111569082613468565b5060a0820151600582019061116b9082613468565b5060c0820151816006015560e08201518160070155610100820151816008015f6101000a81548160ff021916908360068111156111aa576111aa612ad4565b021790555061012082015180516111cb9160098401916020909101906129d3565b5061014082015180516111e891600a8401916020909101906129d3565b506101609190910151600b909101805460ff1916911515919091179055335f818152600860209081526040808320805460018181018355918552838520018690556001600160a01b038c1680855282852080549283018155855292909320909201849055905190919083907f8fb6b855d6cbdf201f2fcaadbf8c38d36168ff7d2ca865cb2599abcd5a060e8f90611280908b90613551565b60405180910390a49695505050505050565b5f81815260066020526040812080549091036112c157604051637c3f844560e11b815260040160405180910390fd5b5f546001600160a01b031633148015906112ed5750600281015461010090046001600160a01b03163314155b1561130a576040516282b42960e81b815260040160405180910390fd5b60058101805460ff1916600117905560405182907ff83ae0ade2d9004bc0030405bdd3336f9d9b97530bcf44cce99ce02c95641b77905f90a25050565b5f81815260096020526040812080546060929067ffffffffffffffff81111561137257611372612d88565b6040519080825280602002602001820160405280156113ab57816020015b61139861298a565b8152602001906001900390816113905790505b5090505f5b825481101561161a5760055f8483815481106113ce576113ce613563565b905f5260205f20015481526020019081526020015f20604051806101000160405290815f820154815260200160018201548152602001600282015f9054906101000a90046001600160a01b03166001600160a01b03166001600160a01b03168152602001600382018054611441906133c0565b80601f016020809104026020016040519081016040528092919081815260200182805461146d906133c0565b80156114b85780601f1061148f576101008083540402835291602001916114b8565b820191905f5260205f20905b81548152906001019060200180831161149b57829003601f168201915b505050505081526020016004820180546114d1906133c0565b80601f01602080910402602001604051908101604052809291908181526020018280546114fd906133c0565b80156115485780601f1061151f57610100808354040283529160200191611548565b820191905f5260205f20905b81548152906001019060200180831161152b57829003601f168201915b505050505081526020016005820154815260200160068201805461156b906133c0565b80601f0160208091040260200160405190810160405280929190818152602001828054611597906133c0565b80156115e25780601f106115b9576101008083540402835291602001916115e2565b820191905f5260205f20905b8154815290600101906020018083116115c557829003601f168201915b5050505050815260200160078201548152505082828151811061160757611607613563565b60209081029190910101526001016113b0565b509392505050565b6001600160a01b0381165f9081526008602090815260409182902080548351818402810184019094528084526060939283018282801561167f57602002820191905f5260205f20905b81548152602001906001019080831161166b575b50505050509050919050565b5f818152600a6020526040812080546060929067ffffffffffffffff8111156116b6576116b6612d88565b6040519080825280602002602001820160405280156116ef57816020015b6116dc612a1c565b8152602001906001900390816116d45790505b5090505f5b825481101561161a5760065f84838154811061171257611712613563565b905f5260205f20015481526020019081526020015f206040518060e00160405290815f820154815260200160018201548152602001600282015f9054906101000a900460ff16600481111561176957611769612ad4565b600481111561177a5761177a612ad4565b8152600282015461010090046001600160a01b031660208201526003820180546040909201916117a9906133c0565b80601f01602080910402602001604051908101604052809291908181526020018280546117d5906133c0565b80156118205780601f106117f757610100808354040283529160200191611820565b820191905f5260205f20905b81548152906001019060200180831161180357829003601f168201915b50505091835250506004820154602082015260059091015460ff161515604090910152825183908390811061185757611857613563565b60209081029190910101526001016116f4565b5f82815260046020526040812080549091036118995760405163124b8b2b60e31b815260040160405180910390fd5b6004600882015460ff1660068111156118b4576118b4612ad4565b14806118d857506006600882015460ff1660068111156118d6576118d6612ad4565b145b156118f6576040516307a92f1960e51b815260040160405180910390fd5b335f90815260076020526040902060020154600882015460ff918216916119209183911685612837565b61193c576040516282b42960e81b815260040160405180910390fd5b60088201805484919060ff1916600183600681111561195d5761195d612ad4565b0217905550837f7c1c93f72f29b8a1fc6fc85eed990d133b1ffac80c962b521abb12f38f2ff9af846040516119929190613577565b60405180910390a250505050565b5f81815260046020526040812080549091036119cf5760405163124b8b2b60e31b815260040160405180910390fd5b60018101546001600160a01b031633146119fb576040516282b42960e81b815260040160405180910390fd5b6004600882015460ff166006811115611a1657611a16612ad4565b03611a34576040516307a92f1960e51b815260040160405180910390fd5b60088101805460ff1916600690811790915560405183917f7c1c93f72f29b8a1fc6fc85eed990d133b1ffac80c962b521abb12f38f2ff9af91611a779190613577565b60405180910390a25050565b611a8b612a1c565b5f828152600660205260408120549003611ab857604051637c3f844560e11b815260040160405180910390fd5b5f82815260066020908152604091829020825160e081018452815481526001820154928101929092526002810154919290919083019060ff166004811115611b0257611b02612ad4565b6004811115611b1357611b13612ad4565b8152600282015461010090046001600160a01b03166020820152600382018054604090920191611b42906133c0565b80601f0160208091040260200160405190810160405280929190818152602001828054611b6e906133c0565b8015611bb95780601f10611b9057610100808354040283529160200191611bb9565b820191905f5260205f20905b815481529060010190602001808311611b9c57829003601f168201915b50505091835250506004820154602082015260059091015460ff16151560409091015292915050565b60066020525f908152604090208054600182015460028301546003840180549394929360ff8316936101009093046001600160a01b0316929190611c25906133c0565b80601f0160208091040260200160405190810160405280929190818152602001828054611c51906133c0565b8015611c9c5780601f10611c7357610100808354040283529160200191611c9c565b820191905f5260205f20905b815481529060010190602001808311611c7f57829003601f168201915b50505050600483015460059093015491929160ff16905087565b5f8181526004602090815260408083208151610180810183528154815260018201546001600160a01b0390811694820194909452600282015490931691830191909152600381018054849392916060840191611d11906133c0565b80601f0160208091040260200160405190810160405280929190818152602001828054611d3d906133c0565b8015611d885780601f10611d5f57610100808354040283529160200191611d88565b820191905f5260205f20905b815481529060010190602001808311611d6b57829003601f168201915b50505050508152602001600482018054611da1906133c0565b80601f0160208091040260200160405190810160405280929190818152602001828054611dcd906133c0565b8015611e185780601f10611def57610100808354040283529160200191611e18565b820191905f5260205f20905b815481529060010190602001808311611dfb57829003601f168201915b50505050508152602001600582018054611e31906133c0565b80601f0160208091040260200160405190810160405280929190818152602001828054611e5d906133c0565b8015611ea85780601f10611e7f57610100808354040283529160200191611ea8565b820191905f5260205f20905b815481529060010190602001808311611e8b57829003601f168201915b5050509183525050600682810154602083015260078301546040830152600883015460609092019160ff1690811115611ee357611ee3612ad4565b6006811115611ef457611ef4612ad4565b815260200160098201805480602002602001604051908101604052809291908181526020018280548015611f4557602002820191905f5260205f20905b815481526020019060010190808311611f31575b50505050508152602001600a8201805480602002602001604051908101604052809291908181526020018280548015611f9b57602002820191905f5260205f20905b815481526020019060010190808311611f87575b5050509183525050600b919091015460ff161515602090910152610160810151909150611fcb5750600192915050565b5f838152600960205260408120905b8154811015612048575f60055f848481548110611ff957611ff9613563565b905f5260205f20015481526020019081526020015f20600701549050805f1415801561202f5750601481128061202f5750605081135b1561203f57505f95945050505050565b50600101611fda565b506001949350505050565b60056020525f90815260409020805460018201546002830154600384018054939492936001600160a01b03909216929161208c906133c0565b80601f01602080910402602001604051908101604052809291908181526020018280546120b8906133c0565b80156121035780601f106120da57610100808354040283529160200191612103565b820191905f5260205f20905b8154815290600101906020018083116120e657829003601f168201915b505050505090806004018054612118906133c0565b80601f0160208091040260200160405190810160405280929190818152602001828054612144906133c0565b801561218f5780601f106121665761010080835404028352916020019161218f565b820191905f5260205f20905b81548152906001019060200180831161217257829003601f168201915b5050505050908060050154908060060180546121aa906133c0565b80601f01602080910402602001604051908101604052809291908181526020018280546121d6906133c0565b80156122215780601f106121f857610100808354040283529160200191612221565b820191905f5260205f20905b81548152906001019060200180831161220457829003601f168201915b5050505050908060070154905088565b5f82600581111561224457612244612ad4565b03612261576040516282b42960e81b815260040160405180910390fd5b6040518060a00160405280336001600160a01b0316815260200184815260200183600581111561229357612293612ad4565b8152602080820184905260016040928301819052335f9081526007835292909220835181546001600160a01b0319166001600160a01b039091161781559083015190918201906122e39082613468565b50604082015160028201805460ff1916600183600581111561230757612307612ad4565b0217905550606082015160038201906123209082613468565b50608091909101516004909101805460ff191691151591909117905560405133907fc9a31de765abe70445345802bee3c96554ca063ab257e3888d498accb859fabc90612370908690869061358b565b60405180910390a2505050565b5f8381526004602052604081205481036123aa5760405163124b8b2b60e31b815260040160405180910390fd5b600380545f91826123ba836133f8565b9190505590506040518060e001604052808281526020018681526020018560048111156123e9576123e9612ad4565b8152602001336001600160a01b031681526020018481526020014281526020015f151581525060065f8381526020019081526020015f205f820151815f0155602082015181600101556040820151816002015f6101000a81548160ff0219169083600481111561245b5761245b612ad4565b021790555060608201516002820180546001600160a01b0390921661010002610100600160a81b0319909216919091179055608082015160038201906124a19082613468565b5060a082015160048281019190915560c0909201516005909101805460ff19169115159190911790555f86815260209182526040808220600a908101805460018181018355918552858520018690558984529084528183208054918201815583529290912090910182905551859082907fc2c9d0fa5caecea68b9ec6aca764014b01764f779d8a510f0d0d6796b76b7c839061253e9088906135ac565b60405180910390a390505b9392505050565b60076020525f9081526040902080546001820180546001600160a01b03909216929161257b906133c0565b80601f01602080910402602001604051908101604052809291908181526020018280546125a7906133c0565b80156125f25780601f106125c9576101008083540402835291602001916125f2565b820191905f5260205f20905b8154815290600101906020018083116125d557829003601f168201915b5050506002840154600385018054949560ff909216949193509150612616906133c0565b80601f0160208091040260200160405190810160405280929190818152602001828054612642906133c0565b801561268d5780601f106126645761010080835404028352916020019161268d565b820191905f5260205f20905b81548152906001019060200180831161267057829003601f168201915b5050506004909301549192505060ff1685565b5f546001600160a01b031633146126ca57604051637bfa4b9f60e01b815260040160405180910390fd5b6001600160a01b038181165f90815260076020526040902054166127015760405163b3ea321360e01b815260040160405180910390fd5b6001600160a01b03165f908152600760205260409020600401805460ff19169055565b5f81815260046020526040812080549091036127535760405163124b8b2b60e31b815260040160405180910390fd5b60028101546001600160a01b0316331461277f576040516282b42960e81b815260040160405180910390fd5b6004600882015460ff16600681111561279a5761279a612ad4565b036127b85760405163b9f7965360e01b815260040160405180910390fd5b60088101805460ff191660041790554260078201819055604051908152339083907f2f4a952729db32131cb3d658cc231127e0ce7e50f83508ece9a49c985f2384d09060200160405180910390a3817f7c1c93f72f29b8a1fc6fc85eed990d133b1ffac80c962b521abb12f38f2ff9af6004604051611a779190613577565b5f600682600681111561284c5761284c612ad4565b0361285857505f612549565b600284600581111561286c5761286c612ad4565b036128aa57600182600681111561288557612885612ad4565b14806128a3575060035b8260068111156128a1576128a1612ad4565b145b9050612549565b60038460058111156128be576128be612ad4565b036128ca57600261288f565b60018460058111156128de576128de612ad4565b03612905575f8360068111156128f6576128f6612ad4565b1480156128a35750600161288f565b505f9392505050565b6040518061018001604052805f81526020015f6001600160a01b031681526020015f6001600160a01b031681526020016060815260200160608152602001606081526020015f81526020015f81526020015f600681111561297157612971612ad4565b8152606060208201819052604082018190525f91015290565b6040518061010001604052805f81526020015f81526020015f6001600160a01b0316815260200160608152602001606081526020015f8152602001606081526020015f81525090565b828054828255905f5260205f20908101928215612a0c579160200282015b82811115612a0c5782518255916020019190600101906129f1565b50612a18929150612a66565b5090565b6040518060e001604052805f81526020015f81526020015f6004811115612a4557612a45612ad4565b81525f60208201819052606060408301819052820181905260809091015290565b5b80821115612a18575f8155600101612a67565b5f60208284031215612a8a575f80fd5b5035919050565b5f81518084525f5b81811015612ab557602081850181015186830182015201612a99565b505f602082860101526020601f19601f83011685010191505092915050565b634e487b7160e01b5f52602160045260245ffd5b60078110612af857612af8612ad4565b9052565b5f815180845260208085019450602084015f5b83811015612b2b57815187529582019590820190600101612b0f565b509495945050505050565b60208152815160208201525f6020830151612b5c60408401826001600160a01b03169052565b5060408301516001600160a01b0381166060840152506060830151610180806080850152612b8e6101a0850183612a91565b91506080850151601f19808685030160a0870152612bac8483612a91565b935060a08701519150808685030160c0870152612bc98483612a91565b935060c087015160e087015260e08701519150610100828188015280880151925050610120612bfa81880184612ae8565b80880151925050610140818786030181880152612c178584612afc565b945080880151925050610160818786030181880152612c368584612afc565b94508088015192505050612c4d8286018215159052565b5090949350505050565b5f610100825184526020830151602085015260018060a01b0360408401511660408501526060830151816060860152612c9282860182612a91565b91505060808301518482036080860152612cac8282612a91565b91505060a083015160a085015260c083015184820360c0860152612cd08282612a91565b91505060e083015160e08501528091505092915050565b602081525f6125496020830184612c57565b8a81526001600160a01b038a8116602083015289166040820152610140606082018190525f90612d2b8382018b612a91565b90508281036080840152612d3f818a612a91565b905082810360a0840152612d538189612a91565b9150508560c08301528460e0830152612d70610100830185612ae8565b8215156101208301529b9a5050505050505050505050565b634e487b7160e01b5f52604160045260245ffd5b5f82601f830112612dab575f80fd5b813567ffffffffffffffff80821115612dc657612dc6612d88565b604051601f8301601f19908116603f01168101908282118183101715612dee57612dee612d88565b81604052838152866020858801011115612e06575f80fd5b836020870160208301375f602085830101528094505050505092915050565b5f805f805f60a08688031215612e39575f80fd5b85359450602086013567ffffffffffffffff80821115612e57575f80fd5b612e6389838a01612d9c565b95506040880135915080821115612e78575f80fd5b612e8489838a01612d9c565b94506060880135915080821115612e99575f80fd5b50612ea688828901612d9c565b95989497509295608001359392505050565b80356001600160a01b0381168114612ece575f80fd5b919050565b5f60208284031215612ee3575f80fd5b61254982612eb8565b60068110612af857612af8612ad4565b602080825282516001600160a01b03168282015282015160a060408301525f90612f2960c0840182612a91565b90506040840151612f3d6060850182612eec565b506060840151838203601f19016080850152612f598282612a91565b9150506080840151151560a08401528091505092915050565b5f805f805f60a08688031215612f86575f80fd5b612f8f86612eb8565b9450602086013567ffffffffffffffff80821115612fab575f80fd5b612fb789838a01612d9c565b95506040880135915080821115612fcc575f80fd5b612fd889838a01612d9c565b94506060880135915080821115612fed575f80fd5b50612ffa88828901612d9c565b9250506080860135801515811461300f575f80fd5b809150509295509295909350565b5f60208083016020845280855180835260408601915060408160051b8701019250602087015f5b8281101561307257603f19888603018452613060858351612c57565b94509285019290850190600101613044565b5092979650505050505050565b602080825282518282018190525f9190848201906040850190845b818110156130b65783518352928401929184019160010161309a565b50909695505050505050565b60058110612af857612af8612ad4565b80518252602081015160208301525f60408201516130f360408501826130c2565b5060018060a01b036060830151166060840152608082015160e0608085015261311f60e0850182612a91565b905060a083015160a085015260c0830151151560c08501528091505092915050565b5f60208083016020845280855180835260408601915060408160051b8701019250602087015f5b8281101561307257603f198886030184526131848583516130d2565b94509285019290850190600101613168565b5f80604083850312156131a7575f80fd5b823591506020830135600781106131bc575f80fd5b809150509250929050565b602081525f61254960208301846130d2565b8781528660208201526131ef60408201876130c2565b6001600160a01b038516606082015260e0608082018190525f9061321590830186612a91565b60a08301949094525090151560c09091015295945050505050565b888152602081018890526001600160a01b0387166040820152610100606082018190525f9061326183820189612a91565b905082810360808401526132758188612a91565b90508560a084015282810360c084015261328f8186612a91565b9150508260e08301529998505050505050505050565b5f805f606084860312156132b7575f80fd5b833567ffffffffffffffff808211156132ce575f80fd5b6132da87838801612d9c565b945060208601359150600682106132ef575f80fd5b90925060408501359080821115613304575f80fd5b5061331186828701612d9c565b9150509250925092565b5f805f6060848603121561332d575f80fd5b83359250602084013560058110613342575f80fd5b9150604084013567ffffffffffffffff81111561335d575f80fd5b61331186828701612d9c565b6001600160a01b038616815260a0602082018190525f9061338c90830187612a91565b6133996040840187612eec565b82810360608401526133ab8186612a91565b91505082151560808301529695505050505050565b600181811c908216806133d457607f821691505b6020821081036133f257634e487b7160e01b5f52602260045260245ffd5b50919050565b5f6001820161341557634e487b7160e01b5f52601160045260245ffd5b5060010190565b601f82111561346357805f5260205f20601f840160051c810160208510156134415750805b601f840160051c820191505b81811015613460575f815560010161344d565b50505b505050565b815167ffffffffffffffff81111561348257613482612d88565b6134968161349084546133c0565b8461341c565b602080601f8311600181146134c9575f84156134b25750858301515b5f19600386901b1c1916600185901b178555613520565b5f85815260208120601f198616915b828110156134f7578886015182559484019460019091019084016134d8565b508582101561351457878501515f19600388901b60f8161c191681555b505060018460011b0185555b505050505050565b604081525f61353a6040830185612a91565b905060018060a01b03831660208301529392505050565b602081525f6125496020830184612a91565b634e487b7160e01b5f52603260045260245ffd5b602081016135858284612ae8565b92915050565b604081525f61359d6040830185612a91565b90506125496020830184612eec565b6020810161358582846130c256fea26469706673582212205d2654e07696b6a64970c7141f1385a357df009bea3f8e6f4a2081a0cd96ab2364736f6c63430008180033","linkReferences":{}},"methodIdentifiers":{"MAX_COLD_TEMP()":"0c427264","MIN_COLD_TEMP()":"03fe200f","actors(address)":"eaa66a3c","admin()":"f851a440","cancelShipment(uint256)":"7faa7bc7","checkpoints(uint256)":"b8a24252","confirmDelivery(uint256)":"fd84cb97","createShipment(address,string,string,string,bool)":"475b6f98","deactivateActor(address)":"fc436695","getActor(address)":"4138d167","getActorShipments(address)":"72f2f93a","getCheckpoint(uint256)":"20fc4881","getIncident(uint256)":"9578615e","getShipment(uint256)":"092b3740","getShipmentCheckpoints(uint256)":"5f19f4f5","getShipmentIncidents(uint256)":"733e28aa","incidents(uint256)":"a6c6a8f3","nextCheckpointId()":"229ec452","nextIncidentId()":"0fd19668","nextShipmentId()":"b9a3a68c","recordCheckpoint(uint256,string,string,string,int256)":"33401ee1","registerActor(string,uint8,string)":"c4edcf8b","reportIncident(uint256,uint8,string)":"e570c367","resolveIncident(uint256)":"4ffe6ae2","shipments(uint256)":"2ac08a93","updateShipmentStatus(uint256,uint8)":"7defa920","verifyTemperatureCompliance(uint256)":"af56a428"},"id":17}