{"abi":[{"type":"constructor","inputs":[{"name":"_admin","type":"address","internalType":"address"}],"stateMutability":"nonpayable"},{"type":"function","name":"admin","inputs":[],"outputs":[{"name":"","type":"address","internalType":"address"}],"stateMutability":"view"},{"type":"function","name":"approveUser","inputs":[{"name":"_userId","type":"uint256","internalType":"uint256"}],"outputs":[],"stateMutability":"nonpayable"},{"type":"function","name":"getAllUsers","inputs":[],"outputs":[{"name":"","type":"tuple[]","internalType":"struct UserRegistry.User[]","components":[{"name":"wallet","type":"address","internalType":"address"},{"name":"role","type":"uint8","internalType":"enum UserRegistry.UserRole"},{"name":"status","type":"uint8","internalType":"enum UserRegistry.UserStatus"},{"name":"registeredAt","type":"uint256","internalType":"uint256"},{"name":"txCount","type":"uint256","internalType":"uint256"}]}],"stateMutability":"view"},{"type":"function","name":"getUser","inputs":[{"name":"_userId","type":"uint256","internalType":"uint256"}],"outputs":[{"name":"","type":"tuple","internalType":"struct UserRegistry.User","components":[{"name":"wallet","type":"address","internalType":"address"},{"name":"role","type":"uint8","internalType":"enum UserRegistry.UserRole"},{"name":"status","type":"uint8","internalType":"enum UserRegistry.UserStatus"},{"name":"registeredAt","type":"uint256","internalType":"uint256"},{"name":"txCount","type":"uint256","internalType":"uint256"}]}],"stateMutability":"view"},{"type":"function","name":"getUserByWallet","inputs":[{"name":"_wallet","type":"address","internalType":"address"}],"outputs":[{"name":"","type":"tuple","internalType":"struct UserRegistry.User","components":[{"name":"wallet","type":"address","internalType":"address"},{"name":"role","type":"uint8","internalType":"enum UserRegistry.UserRole"},{"name":"status","type":"uint8","internalType":"enum UserRegistry.UserStatus"},{"name":"registeredAt","type":"uint256","internalType":"uint256"},{"name":"txCount","type":"uint256","internalType":"uint256"}]}],"stateMutability":"view"},{"type":"function","name":"getUserCount","inputs":[],"outputs":[{"name":"total","type":"uint256","internalType":"uint256"},{"name":"pending","type":"uint256","internalType":"uint256"},{"name":"approved","type":"uint256","internalType":"uint256"},{"name":"rejected","type":"uint256","internalType":"uint256"}],"stateMutability":"view"},{"type":"function","name":"getUserTransactions","inputs":[{"name":"_userId","type":"uint256","internalType":"uint256"}],"outputs":[{"name":"","type":"tuple[]","internalType":"struct UserRegistry.Transaction[]","components":[{"name":"txHash","type":"bytes32","internalType":"bytes32"},{"name":"timestamp","type":"uint256","internalType":"uint256"},{"name":"action","type":"string","internalType":"string"}]}],"stateMutability":"view"},{"type":"function","name":"isRegistered","inputs":[{"name":"_wallet","type":"address","internalType":"address"}],"outputs":[{"name":"","type":"bool","internalType":"bool"}],"stateMutability":"view"},{"type":"function","name":"nextUserId","inputs":[],"outputs":[{"name":"","type":"uint256","internalType":"uint256"}],"stateMutability":"view"},{"type":"function","name":"register","inputs":[{"name":"_role","type":"uint8","internalType":"uint8"}],"outputs":[],"stateMutability":"nonpayable"},{"type":"function","name":"rejectUser","inputs":[{"name":"_userId","type":"uint256","internalType":"uint256"}],"outputs":[],"stateMutability":"nonpayable"},{"type":"function","name":"setPending","inputs":[{"name":"_userId","type":"uint256","internalType":"uint256"}],"outputs":[],"stateMutability":"nonpayable"},{"type":"event","name":"UserRegistered","inputs":[{"name":"userId","type":"uint256","indexed":true,"internalType":"uint256"},{"name":"wallet","type":"address","indexed":true,"internalType":"address"},{"name":"role","type":"uint8","indexed":false,"internalType":"enum UserRegistry.UserRole"},{"name":"status","type":"uint8","indexed":false,"internalType":"enum UserRegistry.UserStatus"}],"anonymous":false},{"type":"event","name":"UserStatusChanged","inputs":[{"name":"userId","type":"uint256","indexed":true,"internalType":"uint256"},{"name":"status","type":"uint8","indexed":false,"internalType":"enum UserRegistry.UserStatus"}],"anonymous":false},{"type":"error","name":"AlreadyRegistered","inputs":[]},{"type":"error","name":"InvalidRole","inputs":[]},{"type":"error","name":"NotAdmin","inputs":[]},{"type":"error","name":"UserNotFound","inputs":[]}],"bytecode":{"object":"0x60806040526001805534801562000014575f80fd5b506040516200165e3803806200165e8339810160408190526200003791620002e5565b5f80546001600160a01b0319166001600160a01b03831617905560408051808201909152601181527018591b5a5b97da5b9a5d1a585b1a5e9959607a1b60208201526200008c90829060019060029062000093565b5062000537565b600180545f9182620000a58362000314565b9190505590506040518060a00160405280866001600160a01b03168152602001856005811115620000da57620000da62000339565b8152602001846003811115620000f457620000f462000339565b8152426020808301919091525f60409283018190528481526002825291909120825181546001600160a01b039091166001600160a01b031982168117835592840151919283916001600160a81b03191617600160a01b8360058111156200015f576200015f62000339565b021790555060408201518154829060ff60a81b1916600160a81b8360038111156200018e576200018e62000339565b0217905550606082015160018201556080909101516002909101556001600160a01b0385165f908152600360205260409020819055620001cf81836200021c565b846001600160a01b0316817fbbd67491010f24505339e63dad1cdf10ee0fb9f9d5db46d648b919ccc9641a5c86866040516200020d9291906200034d565b60405180910390a35050505050565b5f8281526002602081905260408220018054916200023a8362000314565b90915550505f8281526004602090815260408083208151606081018352600293849052919093209091015481906200027b9042908790876080860162000387565b60408051601f198184030181529181528151602092830120835242838301529182018590528354600181810186555f95865294829020845160039092020190815590830151938101939093558101519091906002820190620002de90826200046b565b5050505050565b5f60208284031215620002f6575f80fd5b81516001600160a01b03811681146200030d575f80fd5b9392505050565b5f600182016200033257634e487b7160e01b5f52601160045260245ffd5b5060010190565b634e487b7160e01b5f52602160045260245ffd5b604081016006841062000364576200036462000339565b838252600483106200037a576200037a62000339565b8260208301529392505050565b8481525f602085602084015284604084015283515f5b81811015620003bb578581018301518582016060015282016200039d565b505f9301606001928352509095945050505050565b634e487b7160e01b5f52604160045260245ffd5b600181811c90821680620003f957607f821691505b6020821081036200041857634e487b7160e01b5f52602260045260245ffd5b50919050565b601f8211156200046657805f5260205f20601f840160051c81016020851015620004455750805b601f840160051c820191505b81811015620002de575f815560010162000451565b505050565b81516001600160401b03811115620004875762000487620003d0565b6200049f81620004988454620003e4565b846200041e565b602080601f831160018114620004d5575f8415620004bd5750858301515b5f19600386901b1c1916600185901b1785556200052f565b5f85815260208120601f198616915b828110156200050557888601518255948401946001909101908401620004e4565b50858210156200052357878501515f19600388901b60f8161c191681555b505060018460011b0185555b505050505050565b61111980620005455f395ff3fe608060405234801561000f575f80fd5b50600436106100b1575f3560e01c8063b5cb15f71161006e578063b5cb15f714610143578063c195fc741461016b578063c3c5a5471461017e578063e2842d79146101b8578063e969c494146101cd578063f851a440146101ed575f80fd5b806321c4d12a146100b55780633b0328be146100ca57806361d689fa146100f35780637b46808e14610106578063a1e6a25514610119578063b0467deb14610130575b5f80fd5b6100c86100c3366004610cde565b610217565b005b6100dd6100d8366004610cf5565b6102ed565b6040516100ea9190610da3565b60405180910390f35b6100c8610101366004610db7565b61041b565b6100c8610114366004610cde565b6104df565b61012260015481565b6040519081526020016100ea565b6100dd61013e366004610cde565b6105a8565b61014b610684565b6040805194855260208501939093529183015260608201526080016100ea565b6100c8610179366004610cde565b61074a565b6101a861018c366004610cf5565b6001600160a01b03165f90815260036020526040902054151590565b60405190151581526020016100ea565b6101c0610818565b6040516100ea9190610dd7565b6101e06101db366004610cde565b610994565b6040516100ea9190610e46565b5f546101ff906001600160a01b031681565b6040516001600160a01b0390911681526020016100ea565b5f546001600160a01b0316331461024157604051637bfa4b9f60e01b815260040160405180910390fd5b5f81815260026020526040902080546001600160a01b0316610276576040516319c29a3360e21b815260040160405180910390fd5b805460ff60a81b1916600160a91b178155604080518082019091526007815266617070726f766560c81b60208201526102b0908390610aa4565b817fde41d6a80b9890d3bddcc88e9bc4773f2ddc735509d67de7b888962de853a0c060026040516102e19190610edf565b60405180910390a25050565b61031c6040805160a081019091525f808252602082019081526020015f81526020015f81526020015f81525090565b6001600160a01b0382165f908152600360205260408120549081900361036d576040805160a081019091525f808252602082019081526020015f81526020015f81526020015f815250915050919050565b5f81815260026020908152604091829020825160a0810190935280546001600160a01b03811684529091830190600160a01b900460ff1660058111156103b5576103b5610d22565b60058111156103c6576103c6610d22565b81528154602090910190600160a81b900460ff1660038111156103eb576103eb610d22565b60038111156103fc576103fc610d22565b8152600182015460208201526002909101546040909101529392505050565b335f908152600360205260409020541561044857604051630ea075bf60e21b815260040160405180910390fd5b5f8160ff16600581111561045e5761045e610d22565b90505f81600581111561047357610473610d22565b14806104905750600181600581111561048e5761048e610d22565b145b156104ae57604051636caa20b560e11b815260040160405180910390fd5b6104db33826001604051806040016040528060088152602001673932b3b4b9ba32b960c11b815250610b67565b5050565b5f546001600160a01b0316331461050957604051637bfa4b9f60e01b815260040160405180910390fd5b5f81815260026020526040902080546001600160a01b031661053e576040516319c29a3360e21b815260040160405180910390fd5b805460ff60a81b1916600360a81b1781556040805180820190915260068152651c995a9958dd60d21b6020820152610577908390610aa4565b817fde41d6a80b9890d3bddcc88e9bc4773f2ddc735509d67de7b888962de853a0c060036040516102e19190610edf565b6105d76040805160a081019091525f808252602082019081526020015f81526020015f81526020015f81525090565b5f82815260026020908152604091829020825160a0810190935280546001600160a01b03811684529091830190600160a01b900460ff16600581111561061f5761061f610d22565b600581111561063057610630610d22565b81528154602090910190600160a81b900460ff16600381111561065557610655610d22565b600381111561066657610666610d22565b81526001820154602082015260029091015460409091015292915050565b5f805f80600180546106969190610f01565b935060015b600154811015610743575f81815260026020526040902054600160a81b900460ff1660018160038111156106d1576106d1610d22565b036106e857846106e081610f14565b95505061073a565b60028160038111156106fc576106fc610d22565b03610713578361070b81610f14565b94505061073a565b600381600381111561072757610727610d22565b0361073a578261073681610f14565b9350505b5060010161069b565b5090919293565b5f546001600160a01b0316331461077457604051637bfa4b9f60e01b815260040160405180910390fd5b5f81815260026020526040902080546001600160a01b03166107a9576040516319c29a3360e21b815260040160405180910390fd5b805460ff60a81b1916600160a81b17815560408051808201909152600b81526a7365745f70656e64696e6760a81b60208201526107e7908390610aa4565b817fde41d6a80b9890d3bddcc88e9bc4773f2ddc735509d67de7b888962de853a0c060016040516102e19190610edf565b60605f600180546108299190610f01565b90505f8167ffffffffffffffff81111561084557610845610f2c565b6040519080825280602002602001820160405280156108a557816020015b6108926040805160a081019091525f808252602082019081526020015f81526020015f81526020015f81525090565b8152602001906001900390816108635790505b50905060015b60015481101561098d575f81815260026020908152604091829020825160a0810190935280546001600160a01b03811684529091830190600160a01b900460ff1660058111156108fd576108fd610d22565b600581111561090e5761090e610d22565b81528154602090910190600160a81b900460ff16600381111561093357610933610d22565b600381111561094457610944610d22565b8152602001600182015481526020016002820154815250508260018361096a9190610f01565b8151811061097a5761097a610f40565b60209081029190910101526001016108ab565b5092915050565b606060045f8381526020019081526020015f20805480602002602001604051908101604052809291908181526020015f905b82821015610a99578382905f5260205f2090600302016040518060600160405290815f820154815260200160018201548152602001600282018054610a0a90610f54565b80601f0160208091040260200160405190810160405280929190818152602001828054610a3690610f54565b8015610a815780601f10610a5857610100808354040283529160200191610a81565b820191905f5260205f20905b815481529060010190602001808311610a6457829003601f168201915b505050505081525050815260200190600101906109c6565b505050509050919050565b5f828152600260208190526040822001805491610ac083610f14565b90915550505f828152600460209081526040808320815160608101835260029384905291909320909101548190610aff90429087908760808601610f8c565b60408051601f198184030181529181528151602092830120835242838301529182018590528354600181810186555f95865294829020845160039092020190815590830151938101939093558101519091906002820190610b609082611008565b5050505050565b600180545f9182610b7783610f14565b9190505590506040518060a00160405280866001600160a01b03168152602001856005811115610ba957610ba9610d22565b8152602001846003811115610bc057610bc0610d22565b8152426020808301919091525f60409283018190528481526002825291909120825181546001600160a01b039091166001600160a01b031982168117835592840151919283916001600160a81b03191617600160a01b836005811115610c2857610c28610d22565b021790555060408201518154829060ff60a81b1916600160a81b836003811115610c5457610c54610d22565b0217905550606082015160018201556080909101516002909101556001600160a01b0385165f908152600360205260409020819055610c938183610aa4565b846001600160a01b0316817fbbd67491010f24505339e63dad1cdf10ee0fb9f9d5db46d648b919ccc9641a5c8686604051610ccf9291906110c8565b60405180910390a35050505050565b5f60208284031215610cee575f80fd5b5035919050565b5f60208284031215610d05575f80fd5b81356001600160a01b0381168114610d1b575f80fd5b9392505050565b634e487b7160e01b5f52602160045260245ffd5b60068110610d4657610d46610d22565b9052565b60048110610d4657610d46610d22565b80516001600160a01b0316825260208082015190610d7a90840182610d36565b506040810151610d8d6040840182610d4a565b5060608181015190830152608090810151910152565b60a08101610db18284610d5a565b92915050565b5f60208284031215610dc7575f80fd5b813560ff81168114610d1b575f80fd5b602080825282518282018190525f9190848201906040850190845b81811015610e1857610e05838551610d5a565b9284019260a09290920191600101610df2565b50909695505050505050565b5f5b83811015610e3e578181015183820152602001610e26565b50505f910152565b5f60208083018184528085518083526040925060408601915060408160051b8701018488015f5b83811015610ed157888303603f19018552815180518452878101518885015286015160608785018190528151908501819052608090610eb181838801858d01610e24565b96890196601f01601f191694909401909301925090860190600101610e6d565b509098975050505050505050565b60208101610db18284610d4a565b634e487b7160e01b5f52601160045260245ffd5b81810381811115610db157610db1610eed565b5f60018201610f2557610f25610eed565b5060010190565b634e487b7160e01b5f52604160045260245ffd5b634e487b7160e01b5f52603260045260245ffd5b600181811c90821680610f6857607f821691505b602082108103610f8657634e487b7160e01b5f52602260045260245ffd5b50919050565b8481528360208201528260408201525f8251610faf816060850160208701610e24565b9190910160600195945050505050565b601f82111561100357805f5260205f20601f840160051c81016020851015610fe45750805b601f840160051c820191505b81811015610b60575f8155600101610ff0565b505050565b815167ffffffffffffffff81111561102257611022610f2c565b611036816110308454610f54565b84610fbf565b602080601f831160018114611069575f84156110525750858301515b5f19600386901b1c1916600185901b1785556110c0565b5f85815260208120601f198616915b8281101561109757888601518255948401946001909101908401611078565b50858210156110b457878501515f19600388901b60f8161c191681555b505060018460011b0185555b505050505050565b604081016110d68285610d36565b610d1b6020830184610d4a56fea264697066735822122049e20fd1ae922c6521ac7e3b27667431b26112b342fc85c30381787e550557a964736f6c63430008180033","linkReferences":{}},"methodIdentifiers":{"admin()":"f851a440","approveUser(uint256)":"21c4d12a","getAllUsers()":"e2842d79","getUser(uint256)":"b0467deb","getUserByWallet(address)":"3b0328be","getUserCount()":"b5cb15f7","getUserTransactions(uint256)":"e969c494","isRegistered(address)":"c3c5a547","nextUserId()":"a1e6a255","register(uint8)":"61d689fa","rejectUser(uint256)":"7b46808e","setPending(uint256)":"c195fc74"},"id":25}